:100000000C9468130C9499130C9499130C949913F1
:100010000C9499130C9499130C9499130C949913B0
:100020000C9499130C9499130C9499130C949913A0
:100030000C9499130C9499130C9499130C94991390
:100040000C9499130C94FF600C9499130C949913CD
:100050000C9499130C9499130C94166F0C943C9077
:100060000C9499130C94851D0C9499130C9499136A
:100070000C9499130C9499130C9499130C94991350
:100080000C9499130C9499130C9499130C94991340
:100090000C9499130C9499130C9499130C94991330
:1000A0000C9499130C9499130C9499130C94991320
:1000B0000C9499130C9499130C9499130C94991310
:1000C0000C9499130C9499130C9499130C94991300
:1000D0000C9499130C9499130C9499130C949913F0
:1000E0000C9499138C8E8F8E7E8E828E888EC68E07
:1000F000938E978E9D8EA18EA58EAB8EAF8EB38E76
:10010000C68EB98EBD8EC18E588F5D8F628F6C8FFB
:10011000768FEF8F808F888F908F9A8FA48FAE8F7E
:10012000BD8FC78FEF8FD18FDB8FE58F084AD73B0D
:100130003BCE016E84BCBFFDC12F3D6C74319ABDB6
:1001400056833DDA3D00C77F11BED9E4BB4C3E91DA
:100150006BAAAABE000000803F05A84CCDB2D44EC9
:10016000B93836A9020C50B9918688083CA6AAAACB
:100170002ABE000000803F004E414E494E4954596E
:10018000494E46CDCCCC3D0AD7233C17B7D1387762
:10019000CC2B329595E6241FB14F0A000020410078
:1001A00000C84200401C4620BCBE4CCA1B0E5AAEC2
:1001B000C59D744C4556454C494E4700434F4D4DE7
:1001C000554E49434154494F4E0044525952554EA1
:1001D000004552524F525300494E464F0045434846
:1001E0004F0047322F473320626164207061726193
:1001F0006D65746572730A003C3C3C204732380AD6
:10020000005261697365205A20286265666F7265C5
:1002100020686F6D696E672920746F20003E20652D
:100220006E6473746F70732E656E61626C65287492
:10023000727565290A003C3C3C204732380A003E72
:1002400020686F6D696E67206E6F74206E656564DF
:1002500065642C20736B69700A003E3E3E20473275
:10026000380A00205A3A200020593A20004265649A
:1002700020583A20004D65736820706F696E7420B5
:1002800063616E6E6F74206265207265736F6C7649
:1002900065640A005072696E742074696D653A2055
:1002A00000DD01D801D101CA01BC01B3016F66664E
:1002B0000044454255473A004B494C4C45442E209A
:1002C000004D3131332053006F6B00544845524D7F
:1002D000414C5F50524F54454354494F4E00415595
:1002E000544F5245504F52545F53445F53544154FE
:1002F000555300454D455247454E43595F50415275
:1003000053455200434153455F4C494748545F426F
:1003100052494748544E45535300544F47474C4564
:100320005F4C494748545300534F46545741524538
:100330005F504F574552004255494C445F5045521B
:1003400043454E54004C4556454C494E475F444149
:100350005441005A5F50524F4245004155544F4C52
:100360004556454C005052494E545F4A4F4200504A
:10037000524F4752455353004155544F5245504FE9
:1003800052545F54454D5000564F4C554D455452B4
:10039000494300454550524F4D0053455249414C49
:1003A0005F584F4E5F584F4646004649524D5741A1
:1003B00052455F4E414D453A4D61726C696E204A1F
:1003C000313852455F3230303131345F313630327E
:1003D0005F484120534F555243455F434F44455F6B
:1003E00055524C3A68747470733A2F2F6769746869
:1003F00075622E636F6D2F61686172736861632F20
:1004000046574A756C6961323031384D61726C699A
:100410006E2050524F544F434F4C5F5645525349F4
:100420004F4E3A312E30204D414348494E455F549E
:100430005950453A4A756C696120457874656E6417
:1004400065642045585452554445525F434F554EBC
:10045000543A3120555549443A3862656131343750
:10046000342D373130622D346239302D38613530DA
:100470002D3832333765616165633530660A002F88
:100480002F2000205400205200416363656C657288
:100490006174696F6E3A2050003F4A206F75742076
:1004A0006F662072616E67652028302E30312074AF
:1004B0006F20302E33290A00000020C100007A434B
:1004C0000080A243546F6F206661722066726F6D68
:1004D000207265666572656E636520706F696E7403
:1004E0000A00FF010120466C6F773A2000000136B8
:1004F000372603FFFFFF353C3D38FF0FFFFF312E4E
:10050000303EFF13FFFFFF28390C0809FFFFFF1AD9
:100510001C18FFFF2A08440AFF4320643A002069A0
:100520003A0020703A00496E76616C696420657803
:100530007472756465720A0043290A0061626C6511
:100540006420286D696E2074656D702000436F6CA7
:10055000642065787472756465732061726520002B
:100560004E6F2063617365206C696768740A004D83
:1005700065736820706F696E742063616E6E6F744E
:10058000206265207265736F6C7665640A004D3475
:10059000323120696E636F727265637420706172AC
:1005A000616D657465722075736167650A00454504
:1005B00050524F4D204F4B0A003F5A206F75742008
:1005C0006F662072616E676520282D323020746F4F
:1005D000203230290A003A200050726F6265205A9A
:1005E000204F6666736574004163746976652045C3
:1005F000787472756465723A2000496E76616C6930
:10060000642065787472756465720A003C3C3C2015
:1006100067636F64655F540A00203A204146544581
:10062000520A00202063757272656E745F706F737A
:100630006974696F6E3D00203A204245464F52452D
:100640000A00202063757272656E745F706F736943
:1006500074696F6E3D003E3E3E2067636F64655F68
:100660005428006F6B0020503A00205A3A0020595D
:100670003A0020583A00656E6473746F7073206896
:1006800069743A20002569730025696D2025697316
:10069000002569682025696D202569730025696436
:1006A000202569682025696D2025697300256979F1
:1006B00020256964202569682025696D20256973D6
:1006C000002C20002C2000203A2073796E635F708C
:1006D0006C616E5F706F736974696F6E0A002020C1
:1006E00063757272656E745F706F736974696F6E33
:1006F0003D00656E7175657565696E672022004BFA
:10070000494C4C45442E20005072696E746572202D
:1007100073746F707065642064756520746F2065F4
:1007200072726F72732E2046697820746865206536
:1007300072726F7220616E6420757365204D393955
:100740003920746F20726573746172742E2028547E
:10075000656D70657261747572652069732072656C
:100760007365742E20536574206974206166746506
:10077000722072657374617274696E67290A004E23
:100780006F20436865636B73756D207769746820AB
:100790006C696E65206E756D6265722C204C61739C
:1007A00074204C696E653A2000636865636B7375ED
:1007B0006D206D69736D617463682C204C61737476
:1007C000204C696E653A20004C696E65204E756D4F
:1007D000626572206973206E6F74204C617374209F
:1007E0004C696E65204E756D6265722B312C204C04
:1007F000617374204C696E653A20004D31313000D0
:1008000020496E76616C69642065787472756465E0
:100810007220000000000000000000000000000046
:10082000007A4300007A430080A2430A20736F6677
:10083000745F656E6473746F705F6D6178203D20C6
:10084000000A20736F66745F656E6473746F705F07
:100850006D696E203D20000A20706F736974696FA6
:100860006E5F7368696674203D200020617869734B
:100870003A0A20686F6D655F6F6666736574203D28
:100880002000466F7220003C3C3C20646F5F626C2D
:100890006F636B696E675F6D6F76655F746F0A007B
:1008A0003E3E3E20646F5F626C6F636B696E675F94
:1008B0006D6F76655F746F00203A20736574757094
:1008C0005F666F725F656E6473746F705F6F725F87
:1008D00070726F62655F6D6F76650A0020206375C8
:1008E0007272656E745F706F736974696F6E3D00CC
:1008F000203A20636C65616E5F75705F6166746538
:10090000725F656E6473746F705F6F725F70726F29
:1009100062655F6D6F76650A00202063757272658F
:100920006E745F706F736974696F6E3D00646F5FA2
:1009300070726F62655F72616973652800646570CB
:100940006C6F793A2000203A207365745F70726F83
:1009500062655F6465706C6F7965640A002020636E
:10096000757272656E745F706F736974696F6E3DD6
:1009700000203A203C3C3C20646F5F70726F6265DF
:100980005F6D6F76650A00202063757272656E7404
:100990005F706F736974696F6E3D00203A203E3E50
:1009A0003E20646F5F70726F62655F6D6F76650A7F
:1009B00000202063757272656E745F706F73697466
:1009C000696F6E3D0072657365745F6265645F6C2C
:1009D0006576656C0A002028646F6E65290A0045FB
:1009E00078747261706F6C617465205B0024F4D45C
:1009F0003050C38E20C2A24017828B7011127A91A0
:100A00000D816CD90AA861E108C758660761514396
:100A1000061E4B5D05C145A7041A411104093D9806
:100A200003713931034036DB0265339102D430540F
:100A300002802E1D02632CEE01752AC501B028A08C
:100A400001102781018F2564012B244B01E0223402
:100A500001AC211F018D200D01801FFC00841EEDC3
:100A600000971DDF00B81CD200E61BC600201BBC8F
:100A700000641AB200B219A8000A19A0006A1899F5
:100A800000D117910040178B00B516840031167EF7
:100A900000B31579003A157300C7146F0058146A33
:100AA00000EE1366008813630025135E00C7125B17
:100AB000006C12570015125400C111510070114FF3
:100AC0000021114B00D61049008D104700461044FC
:100AD0000002104200C00F4000800F3E00420F3C59
:100AE00000060F3B00CB0E3800930E37005C0E352E
:100AF00000270E3400F30D3200C10D3100900D308F
:100B000000600D2E00320D2D00050D2C00D90C2B90
:100B100000AE0C2900850C29005C0C2700350C2741
:100B2000000E0C2600E80B2400C40B2400A00B23AD
:100B3000007D0B23005A0B2100390B2100180B20DC
:100B400000F80A1F00D90A1E00BB0A1E009D0A1DDC
:100B500000800A1D00630A1C00470A1B002C0A1BA8
:100B600000110A1A00F7091A00DD091900C4091951
:100B700000AB091900920917007B091800630917D7
:100B8000004C09160036091600200916000A09153E
:100B900000F5081500E0081400CC081400B808148B
:100BA00000A4081400900813007D0812006B0813BD
:100BB00000580812004608120034081100230811DA
:100BC000001208110001081100F0071000E00710E2
:100BD00000D0071000C0071000B0070F00A10710D9
:100BE0000091070E0083070F0074070F0065070EC2
:100BF0000057070E0049070E003B070D002E070E99
:100C00000020070D0013070D0006070D00F9060C64
:100C100000ED060D00E0060C00D4060C00C8060C22
:100C200000BC060C00B0060C00A4060B0099060CD4
:100C3000008D060B0082060B0077060B006C060B7E
:100C40000061060A0057060B004C060A0042060A1D
:100C50000038060A002E060A0024060A001A060AB0
:100C6000001006090007060A00FD050900F4050941
:100C700000EB050900E2050900D9050900D00509C6
:100C800000C7050900BE050900B5050800AD050847
:100C900000A50509009C050800940508008C0508BE
:100CA00000840508007C050800740508006C050731
:100CB00000650508005D050700560508004E05079C
:100CC0000047050700400508003805070031050703
:100CD000002A050700230507001C05060016050766
:100CE000000F0507000805060002050700FB0406C3
:100CF00000F5040700EE040600E8040600E204071D
:100D000000DB040600D5040600CF040600C9040673
:100D100000C3040600BD040600B7040600B10405C4
:100D200000AC040600A6040600A00405009B04060F
:100D30000095040500900406008A0405008504055A
:100D400000800406007A040500750405007004059F
:100D5000006B04050066040500610405005C0405E1
:100D60000057040500520405004D04050048040521
:100D700000430405003E0404003A04050035040560
:100D800000300404002C040500270404002304059B
:100D9000001E0404001A04040016040500110404D3
:100DA000000D040400090405000404040000040408
:100DB00000FC030400F8030400F4030400F003043F
:100DC00000EC030400E8030400E4030400E003046F
:100DD00000DC030400D8030400D4030400D003049F
:100DE00000CC030400C8030300C503030024F4047B
:100DF000D9201BC40C5C0E9804C4095F02650771FE
:100E000001F405F900FB04B30048048700C103693D
:100E1000005803550003034500BE023A0084023126
:100E20000053022A002902250004022000E4011CCC
:100E300000C8011900AF01170098011400840113C4
:100E400000710110006101100051010E0043010DFD
:100E50000036010B002B010B0020010B00150109CE
:100E6000000C01090003010800FB000800F3000862
:100E700000EB000700E4000600DE000600D80006D4
:100E800000D2000600CC000500C7000500C2000526
:100E900000BD000400B9000400B5000400B1000466
:100EA00000AD000400A9000400A5000300A2000397
:100EB000009F0004009B00030098000300950002BF
:100EC0000093000300900003008D0002008B0003DC
:100ED00000880002008600020084000300810002F6
:100EE000007F0002007D0002007B0002007900020A
:100EF0000077000100760002007400020072000119
:100F000000710002006F0002006D0001006C000221
:100F1000006A00010069000200670001006600012C
:100F20000065000100640002006200010061000130
:100F300000600001005F0002005D0001005C000134
:100F4000005B0001005A0001005900010058000137
:100F50000057000100560001005500010054000137
:100F60000053000000530001005200010051000135
:100F700000500001004F0001004E0000004E000133
:100F8000004D0001004C0001004B0000004B00012F
:100F9000004A00010049000100480000004800012B
:100FA0000047000100460000004600010045000027
:100FB000004500010044000100430000004300011F
:100FC0000042000000420001004100000041000119
:100FD00000400001003F0000003F0001003E000013
:100FE000003E0001003D0000003D0001003C00000B
:100FF000003C0000003C0001003B0000003B000101
:10100000003A0000003A00010039000000390001F8
:1010100000380000003800000038000100370000F0
:1010200000370001003600000036000000360001E5
:1010300000350000003500000035000100340000DC
:1010400000340000003400010033000000330000D1
:1010500000330001003200000032000000320001C5
:1010600000310000003100000031000100300000BC
:101070000030000000300001002F0000002F0000B1
:10108000002F0000002F0001002E0000002E0000A5
:10109000002E0001002D0000002D0000002D00009A
:1010A000002D0001002C0000002C0000002C00008E
:1010B000002C0001002B0000002B0000002B000082
:1010C000002B0001002A0000002A0000002A000076
:1010D000002A00010029000000290000002900006A
:1010E000002900000029000100280000002800005D
:1010F0000028000000280000002800010027000050
:101100000027000000270000002700000027000142
:101110000026000000260000002600000026000037
:101120000026000100250000002500000025000029
:10113000002500000025000000250001002400001B
:10114000002400000024000000240000002400010E
:101150000023000000230000002300000023000003
:1011600000230000002300000023000100220000F3
:1011700000220000002200000022000000220000E7
:1011800000220001002100000021000000210000D9
:1011900000210000002100000021000000210001CA
:1011A00000200000002000000020000000200000BF
:1011B00000200000002000000020000000200001AE
:1011C000001F0000001F0000001F0000001F0000A3
:1011D000001F0000001F0000001F0001001E000093
:1011E000001E0000001E0000001E0000003930003C
:1011F000003325000087190000B00F0000DB080055
:1012000000BD040000740200003F0100004265645C
:10121000204C6576656C696E6720004661696C6577
:101220006420746F20656E61626C65204265642085
:101230004C6576656C696E670A00526573656E640D
:101240003A200020746F6F206C6F6E672065787491
:10125000727573696F6E2070726576656E74656401
:101260000A0020636F6C6420657874727573696F0F
:101270006E2070726576656E7465640A00627573BF
:10128000793A2070617573656420666F7220696EAB
:101290007075740A00627573793A207061757365B0
:1012A0006420666F7220757365720A0062757379C7
:1012B0003A2070726F63657373696E670A004B49F9
:1012C0004C4C45442E20004B494C4C2063617573B7
:1012D000656420627920746F6F206D756368206982
:1012E0006E6163746976652074696D65202D206375
:1012F000757272656E7420636F6D6D616E643A20F5
:101300000020746F6F206C6F6E6720657874727543
:1013100073696F6E2070726576656E7465640A001D
:1013200020636F6C6420657874727573696F6E20CA
:1013300070726576656E7465640A004861726463F4
:101340006F6465642044656661756C7420536574D0
:1013500074696E6773204C6F616465640A00E8030A
:101360000000E80300003200000010270000000029
:101370004843000048430000A04100003442000000
:10138000204300002043F0F77B4400008C433A0ADE
:101390000020286D6D290020204D383531205A005D
:1013A0005A2D50726F6265204F6666736574002017
:1013B000440020490020204D333031205000504956
:1013C000442073657474696E67733A0A00205A008A
:1013D000204A002020473239205720490020204D44
:1013E0003432302053004175746F20426564204CC4
:1013F0006576656C696E673A0A00205A00205900CC
:1014000020204D323036205800486F6D65206F66C1
:10141000667365743A0A00204A0020540020530085
:1014200020204D323035204200204A3C6A756E63E0
:101430005F6465763E00416476616E6365643A2060
:10144000423C6D696E5F7365676D656E745F74694C
:101450006D655F75733E20533C6D696E5F666565B3
:1014600064726174653E20543C6D696E5F74726194
:1014700076656C5F66656564726174653E002054D4
:101480000020520020204D32303420500041636350
:10149000656C65726174696F6E2028756E6974730E
:1014A0002F7332293A20503C7072696E745F616309
:1014B00063656C3E20523C726574726163745F6157
:1014C0006363656C3E20543C74726176656C5F6149
:1014D0006363656C3E0A00204500205A00205900D5
:1014E00020204D3230312058004D6178696D756D86
:1014F00020416363656C65726174696F6E20287545
:101500006E6974732F7332293A0A00204500205AFD
:101510000020590020204D3230332058004D617892
:10152000696D756D206665656472617465732028E8
:10153000756E6974732F73293A0A00204500205A8A
:101540000020590020204D39322058005374657016
:10155000732070657220756E69743A0A0020204D00
:101560003230302044300A0020204D3230302044C8
:10157000002044697361626C65640A0046696C61AD
:101580006D656E742073657474696E67733A0020BC
:1015900020473231202020203B007A5F70726F623A
:1015A000653A20007A5F6D61783A2000795F6D615D
:1015B000783A2000785F6D696E3A20005265706F4E
:1015C0007274696E6720656E6473746F70207374D3
:1015D000617475730A000000000100000001000042
:1015E0008000555555000000400033333300AAAA4F
:1015F0002A004992240000002000C7711C0099991C
:101600001900D1451700555515003BB11300244969
:10161000120011111100000010000F0F0F00E3382D
:101620000E0043790D00CCCC0C00C3300C00E8A2B6
:101630000B0064210B00AAAA0A00703D0A009DD885
:101640000900427B090092240900DCD30800888845
:1016500008001042080000000800F0C1070087875A
:10166000070075500700711C07003EEB0600A1BC87
:1016700006006990060066660600703E0600611866
:10168000060017F4050074D105005BB00500B290A8
:101690000500627205005555050078390500B81E31
:1016A0000500050505004EEC040087D40400A1BD2B
:1016B000040090A7040049920400C17D0400EE6973
:1016C0000400C7560400444404005C3204000821AE
:1016D000040041100400000004003FF00300F8E0A3
:1016E000030026D20300C3C30300CCB503003AA80D
:1016F00003000A9B0300388E0300C08103009F751E
:101700000300D0690300505E03001D5303003448FA
:101710000300913D03003333030016290300381FF3
:10172000030097150300300C0300030303000BFABA
:10173000020049F10200BAE802005CE002002DD884
:1017400002002DD0020059C80200B0C0020031B919
:101750000200DAB10200AAAA0200A0A30200BC9C07
:101760000200FA9502005C8F0200DF88020082828C
:101770000200457C02002776020027700200436ABF
:1017800002007C640200D05E02003F590200C85390
:10179000020042696C696E656172204C6576656C09
:1017A000696E6720477269643A0A00486F6D696E16
:1017B00067206661696C6564003C3C3C20646F5F37
:1017C000686F6D696E675F6D6F766528005B0029D5
:1017D0000A002C20002C20003E3E3E20646F5F68F3
:1017E0006F6D696E675F6D6F7665280041424C20B2
:1017F00041646A7573746D656E74205A00204800E8
:1018000020570020590042696C696E65617220475B
:101810007269642058002028656E61626C656429D5
:101820000A00202864697361626C6564290A0042B9
:10183000494C494E454152004175746F20426564E0
:10184000204C6576656C696E673A2000204E6F7A91
:101850007A6C65290A0020262041626F7665002097
:10186000262053616D65205A206173002026204296
:10187000656C6F77002D4261636B002028526967A9
:10188000687400205A3A0020593A0050726F62651D
:10189000204F666673657420583A004649585F4D7C
:1018A0004F554E5445445F50524F42450A005072C6
:1018B0006F62653A2000436F72650A004D6163688C
:1018C000696E6520547970653A20003C3C3C2047A5
:1018D00032390A0020636F72726563746564205A3E
:1018E0003A0047323920756E636F727265637465B2
:1018F00064205A3A00203A203E2070726F62696E6E
:101900006720636F6D706C6574650A0020206375D5
:101910007272656E745F706F736974696F6E3D008B
:10192000202844525952554E2900473239204175DA
:10193000746F20426564204C6576656C696E670043
:101940003F20284C2C522C462C4229206F757420A5
:101950006F6620626F756E64732E0A003F285629E9
:101960006572626F7365206C6576656C20697320A3
:10197000696D706C61757369626C652028302D34F7
:10198000292E0A00426164205A2076616C75650A2E
:10199000004E6F2062696C696E65617220677269C2
:1019A000640A003C3C3C204732390A003E20417525
:1019B000746F2D6C6576656C206E6F74206E656536
:1019C0006465642C20736B69700A004732380A47DB
:1019D0003239003E204E6F7420686F6D65642E2092
:1019E000456E7175657565696E672047323820668A
:1019F0006F6C6C6F776564206279204732390A001A
:101A0000203A203E3E3E204732390A0020206375AE
:101A10007272656E745F706F736974696F6E3D008A
:101A2000454550524F4D206461746173697A652059
:101A30006572726F722E0A00290A0020627974653D
:101A4000733B20637263200053657474696E67731F
:101A50002053746F726564202800290A002062797F
:101A60007465733B2063726320002073746F72652A
:101A7000642073657474696E67732072657472692B
:101A800065766564202800202863616C63756C614D
:101A900074656429210A0020213D200045455052EB
:101AA0004F4D20435243206D69736D61746368200C
:101AB0002D202873746F7265642920002053697A81
:101AC000653A2000496E6465783A2000204D6172C5
:101AD0006C696E3D563535290A0028454550524FF0
:101AE0004D3D00454550524F4D2076657273696FEC
:101AF0006E206D69736D617463682000FFFDFCFAF0
:101B0000F8F6F4F2F0EEECEAE9E7E5E3E1E0DEDC3A
:101B1000DAD9D7D5D4D2D0CFCDCBCAC8C7C5C3C2E6
:101B2000C0BFBDBCBAB9B7B6B4B3B2B0AFADACAA62
:101B3000A9A8A6A5A4A2A1A09E9D9C9A99989795B4
:101B4000949392908F8E8D8B8A89888786848382E6
:101B500081807F7E7D7B7A797877767574737271F8
:101B6000706F6E6D6C6B6A696867666564636261ED
:101B7000605F5E5D5C5B5A595858575655545352D6
:101B80005150504F4E4D4C4B4A4A494847464645A6
:101B90004443424241403F3E3E3D3C3B3B3A393864
:101BA0003837363535343332323130302F2E2E2D12
:101BB0002C2B2B2A292928272726252524232322B5
:101BC000212120201F1E1E1D1C1C1B1B1A19191849
:101BD00018171616151514131312121111100F0FD2
:101BE0000E0E0D0D0C0C0B0A0A0909080807070652
:101BF00006050504040303020201000046696C6146
:101C00006D656E7420757365643A20005374617459
:101C1000733A20002C204C6F6E67657374206A6FD6
:101C2000623A2000546F74616C2074696D653A20CB
:101C30000053746174733A20002C204661696C650E
:101C4000643A20002C2046696E69736865643A2006
:101C5000005072696E74733A200053746174733A61
:101C600020005072696E7465722068616C746564DE
:101C70002E206B696C6C28292063616C6C65642173
:101C80000A002020506C616E6E6572427566666552
:101C90007242797465733A20002046726565204D62
:101CA000656D6F72793A2000436F6D70696C656481
:101CB0003A204A616E20313420323032300A00201E
:101CC0007C20417574686F723A20467261636B7450
:101CD000616C20576F726B730A00323032302D30D6
:101CE000312D31342031363A303200204C6173745A
:101CF00020557064617465643A20004275696C64B3
:101D00003A204A313852455F3230303131345F3118
:101D10003630325F48410A00467261636B74616C11
:101D200020576F726B73204A756C69612045787417
:101D3000656E6465640A00312E312E390A004D61EA
:101D4000726C696E0020536F667477617265205201
:101D5000657365740A00205761746368646F672057
:101D600052657365740A002042726F776E206F753A
:101D7000742052657365740A002045787465726E2C
:101D8000616C2052657365740A00506F77657255F7
:101D9000700A0073746172740A003C3C3C207365E5
:101DA000745F617869735F69735F61745F686F6D99
:101DB000652800203A200A00202063757272656E43
:101DC000745F706F736974696F6E3D005D203D20B4
:101DD000003E20686F6D655F6F66667365745B00BB
:101DE0003E3E3E207365745F617869735F69735F1F
:101DF00061745F686F6D652800000048420000480C
:101E0000420000A041000000005761726E696E67D9
:101E10003A20486F6D696E672042756D7020446985
:101E20007669736F72203C20310A000202040000C0
:101E3000A0400000A0400000004000007A430000E5
:101E40007A430080A2433C3C3C20686F6D6561781A
:101E500069732800203A203E2041465445522073A1
:101E600065745F617869735F69735F61745F686FE0
:101E70006D650A00202063757272656E745F706F05
:101E8000736974696F6E3D00486F6D652032205331
:101E90006C6F773A0A004D6F766520417761793A29
:101EA0000A00486F6D65203120466173743A0A005C
:101EB0003E3E3E20686F6D6561786973280045720B
:101EC000726F722077726974696E6720746F204533
:101ED0004550524F4D210A006265640A002C207360
:101EE000797374656D2073746F7070656421204818
:101EF00065617465725F49443A20004265642068F8
:101F0000656174696E67206661696C656400486527
:101F10006174696E67206661696C65640045312093
:101F200048656174696E67206661696C6564004824
:101F3000656174696E67206661696C656400100094
:101F4000600350012C0190012201D0011801100200
:101F50000E0170020401E002FA006003F0000004C8
:101F6000E600B004DC00A005D200B006C8000008FE
:101F7000BE00A009B400800BAA00D00DA0009010F4
:101F80009600C0138C0070178200901B7800102000
:101F90006E00C0246400E02D500080353C00A03A63
:101FA0002800A03D1400003F0000A03FECFF453199
:101FB000204572723A204D415854454D50004572AB
:101FC000723A204D415854454D5020424544004DF1
:101FD000415854454D502074726967676572656455
:101FE000004531204572723A204D494E54454D50BE
:101FF000004572723A204D494E54454D502042459D
:1020000044004D494E54454D5020747269676765D0
:1020100072656400202F002042403A0020403A00C0
:10202000000020002300260029002C002F00320091
:10203000000100000301060109010505050507056A
:1020400008080808020202020A0A08080404040434
:102050000101010101010101030303030303030360
:10206000040707070C0C0C0C0C0C0C0C02020202EF
:1020700006060606060606060B0B0B0B0B0B0B0BD8
:10208000010210202008081020401020408002018A
:10209000020108040201010204081020408080406F
:1020A000201008040201800402018040201008046E
:1020B000020108040201010204081020408001020C
:1020C00004081020408000000A0B02090C0D0E08C5
:1020D00007030401000000000000000000000000F1
:1020E00000000000000000000000000000000000F0
:1020F00000001211100000000000000000000000AD
:10210000000000000000000000000000556E6B6E33
:102110006F776E20636F6D6D616E643A20220020D0
:102120003A203C3C3C2072756E5F7A5F70726F6241
:10213000650A00202063757272656E745F706F733C
:102140006974696F6E3D00204469736372657061E4
:102150006E63793A00326E642050726F6265205A65
:102160003A00203A203C3C3C2072756E5F7A5F70EA
:10217000726F62650A00202063757272656E745F0B
:10218000706F736974696F6E3D00534C4F572050E8
:10219000726F6265206661696C210A003173742078
:1021A00050726F6265205A3A00203A203C3C3C2035
:1021B00072756E5F7A5F70726F62650A00202063CD
:1021C000757272656E745F706F736974696F6E3D5E
:1021D00000464153542050726F6265206661696CFD
:1021E000210A00203A203E3E3E2072756E5F7A5FE3
:1021F00070726F62650A00202063757272656E747A
:102200005F706F736974696F6E3D003C3C3C207079
:10221000726F62655F70740A0050726F62696E67F8
:10222000206661696C65640A0050524F42494E470E
:102230005F4641494C45440A00205A3A2000205943
:102240003A200042656420583A2000203A200A00D3
:10225000202063757272656E745F706F7369746944
:102260006F6E3D005F72656C6174697665290A0066
:102270002C20002C20002C20002C20003E3E3E2054
:1022800070726F62655F7074280020666972737483
:102290000A005A0059005800486F6D6520006563B8
:1022A000686F3A004572726F723A004531205448A7
:1022B00045524D414C2052554E41574159004245DF
:1022C0004420544845524D414C2052554E415741AF
:1022D0005900546865726D616C2052756E6177614A
:1022E000790050726F7465637465642050696E0A7A
:1022F000005374616E646172642044657669617430
:10230000696F6E3A20002052616E67653A200020A6
:102310004D61783A2000204D696E3A20004D65618C
:102320006E3A200046696E6973686564210A002070
:1023300072616E67653A2000206D61783A20002056
:102340006D696E3A2000207369676D613A20002044
:102350006D65616E3A20003A207A3A2000206F665F
:102360002000205A00205900205800476F696E67EE
:1023700020746F3A00436C6F636B776973650A0072
:10238000436F756E7465722D0020446972656374C5
:10239000696F6E3A2000202020616E676C653A20DC
:1023A000005374617274696E672072616469757339
:1023B0003A2000506F736974696F6E696E6720749C
:1023C00068652070726F62652E2E2E0A003F4E7572
:1023D0006D626572206F66206C65677320696E2080
:1023E0006D6F76656D656E74206E6F7420706C61B4
:1023F000757369626C652028302D3135292E0A00ED
:102400003F2028582C5929206F7574206F66206250
:102410006F756E64732E0A003F53616D706C65209A
:1024200073697A65206E6F7420706C617573696270
:102430006C652028342D3530292E0A004D34382083
:102440005A2D50726F6265205265706561746162C9
:10245000696C69747920546573740A003F285629A1
:102460006572626F7365206C6576656C2069732098
:10247000696D706C61757369626C652028302D34EC
:10248000292E0A0020573A0020573A00205A3A00D5
:1024900020423A0020436F756E7420413A00204577
:1024A0003A00205A3A0020593A00583A003A00437C
:1024B00061703A00205A00205900580020204D61D8
:1024C000783A2000205A00205900580020204D69F9
:1024D0006E3A20004F6E20004F666600536F6674A0
:1024E00020656E6473746F70733A200023646566B0
:1024F000696E652044454641554C545F4B6420004D
:1025000023646566696E652044454641554C545FB9
:102510004B69200023646566696E65204445464129
:10252000554C545F4B702000504944204175746FE6
:1025300074756E652066696E6973686564212050E4
:10254000757420746865206C617374204B702C2046
:102550004B6920616E64204B6420636F6E737461FD
:102560006E74732066726F6D2062656C6F77206980
:102570006E746F20436F6E66696775726174696F00
:102580006E2E680A00504944204175746F74756E50
:1025900065206661696C6564212074696D656F757D
:1025A000740A00453120544845524D414C20525543
:1025B0004E4157415900546865726D616C205275E7
:1025C0006E617761790045312048656174696E6795
:1025D000206661696C65640048656174696E672096
:1025E0006661696C656400504944204175746F747C
:1025F000756E65206661696C6564212054656D7037
:102600006572617475726520746F6F2068696768A0
:102610000A00204B643A2000204B693A2000204BEE
:10262000703A20000A20436C61737369632050493B
:1026300044200A002054753A2000204B753A2000AF
:10264000206D61783A2000206D696E3A2000206488
:102650003A200020626961733A20005049442041C9
:1026600075746F74756E65206661696C6564212090
:10267000426164206578747275646572206E756D50
:102680006265720A00504944204175746F74756E1A
:10269000652073746172740A000000210024002711
:1026A000002A002D00300033000101000004010762
:1026B000010A0100002200250028002B002E003115
:1026C00000340002010000050108010B0100BDA655
:1026D00011241FBECFEFD1E2DEBFCDBF00E00CBFA3
:1026E00013E0A0E0B2E0E6E4F6E601E00BBF02C0D2
:1026F00007900D92A633B107D9F72EE0A6E3B3E019
:1027000001C01D92AD38B207E1F713E1C8E6D3E18D
:1027100000E006C021970109802FFE010E94D8B277
:10272000C736D10780E00807A9F70E9486900C946D
:1027300021B30C9400008091290790912A079817E3
:1027400059F0E92FF0E0E755F94F80819F5F9F77BF
:1027500090932A0790E008958FEF9FEF0895CF920E
:10276000DF92EF920F931F93CF93DF93CDB7DEB736
:1027700060970FB6F894DEBF0FBECDBFE090350E68
:10278000EFE4FEE080859185A285B3854481558183
:1027900066817781008111812281338109831A83C7
:1027A0002B833C834D835E836F83788789879A87E9
:1027B000AB87BC871D861E861F86188AAE01475FC1
:1027C0005F4FBE016B5F7F4FCE0101960E949E431B
:1027D000CE010D966C0102E412E02BE53EE0AE0165
:1027E000475F5F4FBE016B5F7F4F0C970E94BA320D
:1027F00060960FB6F894DEBF0FBECDBFDF91CF91CC
:102800001F910F91EF90DF90CF900895FF920F935B
:102810001F93CF93DF93FC0120812B3319F1D091CB
:10282000DD05D430F8F4F62EBC01C091F1050C2F73
:1028300010E0F0E6CF9FC0011124855A9B4F0E9403
:1028400001B3F801EF5AFB4FF082CF5FC43018F4A8
:10285000C093F10502C01092F105DF5FD093DD0552
:1028600081E001C080E0DF91CF911F910F91FF9037
:1028700008958091470E85FF06C060EF78E089E1FA
:1028800099E00E9420768091590690915A06A09175
:102890005B06B0915C068093420290934302A09342
:1028A0004402B09345028091570690915806909348
:1028B0003D0280933C0208958091470E85FF06C03B
:1028C00068EB78E08CED98E00E94207680914202DF
:1028D00090914302A0914402B09145028093590621
:1028E00090935A06A0935B06B0935C0680913C02DD
:1028F00090913D02909358068093570684E690E0AD
:1029000090933D0280933C0208950F931F93CF93C1
:10291000DF93CDB7DEB72C970FB6F894DEBF0FBEAE
:10292000CDBF8091470E85FF06C067EC76E08EED47
:1029300096E00E9420768091570E9091580EA091BB
:10294000590EB0915A0E4091530E5091540E609111
:10295000550E7091560E00914F0E1091500E209111
:10296000510E3091520E09831A832B833C834D8381
:102970005E836F83788789879A87AB87BC87AE0130
:10298000475F5F4FBE016B5F7F4FCE0101960E9494
:102990009E432BE53EE0AE01475F5F4FBE016B5F9C
:1029A0007F4FCE0101960E94E2652C960FB6F894F7
:1029B000DEBF0FBECDBFDF91CF911F910F91089564
:1029C0001F93CF93DF93CDB7DEB72C970FB6F89454
:1029D000DEBF0FBECDBF882331F02091540330916C
:1029E0005503232BA1F190915004891781F1182FE1
:1029F0000E9438438CE0EEE4F2E0DE011196019093
:102A00000D928A95E1F7CE0101960E94F82E10935F
:102A10005004111117C00E945C2E83E397E00E94BE
:102A2000864380913B0790913C07A0913D07B09170
:102A30003E078093570E9093580EA093590EB09373
:102A40005A0E04C08FE49EE00E9486435EDF2C96FF
:102A50000FB6F894DEBF0FBECDBFDF91CF911F91AF
:102A600008958091E5039091E603009731F04AE0E4
:102A700050E060E070E00C94D3A860E070E0CB011F
:102A80000895EFDF97FD0AC0ECDF6F3F7105810508
:102A9000910509F02CF4E5DF862F089580E0089574
:102AA0008FEF08958091E5039091E603892B31F033
:102AB000E8DF91E0811103C090E001C091E0892F2F
:102AC00008950F931F93CF938091E5039091E603B0
:102AD000009711F1FC018F01C1912C2F2F7DA9F0DE
:102AE000C53411F0C536B9F7F801108260E070E026
:102AF0008091E5039091E6030E9480A7F801C083CE
:102B0000562F472F382F292F0BC060E070E0CF9150
:102B10001F910F910C9480A750E040E030E020E03E
:102B2000652F742F832F922FCF911F910F910895AE
:102B300081548A3108F042C0E82FF0E04091500300
:102B400050915103609152037091530304C07695E4
:102B50006795579547958A95D2F7842F817040FFE6
:102B60002FC0EA5CFC4F9081992309F1E091230E7C
:102B7000F091240EE90FF11D908120ED290F2A30EC
:102B800098F09E3211F491810CC09D3211F09B326D
:102B900071F4918120ED290F2A3030F09E3239F402
:102BA000928190539A3018F42E2F9F2F02C020E06C
:102BB00090E02093E5039093E603089580E0089564
:102BC0000895B6DF882341F081E02091E50330913C
:102BD000E603232B09F480E008952F923F924F9251
:102BE0005F926F927F928F929F92AF92BF92CF929D
:102BF000DF92EF92FF920F931F93CF93DF93EB013E
:102C0000FC0180809180A280B380C501B40120E8DE
:102C100031E541E050E00E949EAFC9016DE671E0F0
:102C20000E94C4B26B017C01C501B40120E13EE009
:102C300040E050E00E949EAFCA01B90128E130E0B7
:102C400040E050E00E949EAF362E272E062F172F11
:102C50008CE3482E512C612C712CC501B401A301C9
:102C600092010E949EAFB62EA72ECA01B901A30100
:102C700092010E949EAFCB01C114D104D9F0AF9252
:102C8000BF927F936F932F923F92FF92EF92DF92CA
:102C9000CF928DEA96E09F938F93DF93CF930E941C
:102CA00051AB8DB79EB70E960FB6F8949EBF0FBE70
:102CB0008DBF5CC0E114F104C9F0AF92BF927F9365
:102CC0006F932F923F92FF92EF928DE996E09F9340
:102CD0008F93DF93CF930E9451ABEDB7FEB73C9635
:102CE0000FB6F894FEBF0FBEEDBF40C0012BB9F088
:102CF000AF92BF927F936F932F923F9281E996E0BC
:102D00009F938F93DF93CF930E9451AB8DB79EB764
:102D10000A960FB6F8949EBF0FBE8DBF27C0892BB1
:102D2000A9F0AF92BF927F936F9389E896E09F934B
:102D30008F93DF93CF930E9451ABEDB7FEB73896D8
:102D40000FB6F894FEBF0FBEEDBF10C0AF92BF929A
:102D500085E896E09F938F93DF93CF930E9451ABCA
:102D60000F900F900F900F900F900F90DF91CF91D9
:102D70001F910F91FF90EF90DF90CF90BF90AF9099
:102D80009F908F907F906F905F904F903F902F908B
:102D9000089580E1EFE4FEE0A5E2BEE001900D922F
:102DA0008A95E1F708959091C00095FFFCCF80933C
:102DB000C6000895CF93DF938091470E85FF0AC028
:102DC000E5ECF9E08491EF012196882319F0EBDF1F
:102DD000FE01F8CF80E0F4DD109257031092560305
:102DE000109255031092540310925B0310925A03F1
:102DF0001092590310925803EBE2F4E02FE434E010
:102E000080E090E0A0ECBFE780839183A283B3834E
:102E100084839583A683B78380879187A287B387AE
:102E20003C962E173F0781F7DF91CF910895AF921F
:102E3000BF92CF92DF92EF92FF920F931F93CF93A7
:102E4000DF93082F10E0E801CC0FDD1FCC0FDD1F52
:102E50009E01255C314F7901CE0189509C4F5C0168
:102E6000FE01E258FC4F6F01208131814281538184
:102E7000FC0160817181828193810E94FCAFF70126
:102E80006083718382839383FE01ED5EF74F8591AA
:102E90009591A591B4919E012A53324F7901F90180
:102EA00080839183A283B383FE01E15EF74F859116
:102EB0009591A591B491CA5DDD4F88839983AA83CA
:102EC000BB838091470E85FF37C0F801E65BFD4F5D
:102ED000608182E898E00E945562F501408151814D
:102EE000628173818BE698E00E941F62F601408147
:102EF00051816281738187E598E00E941F62F7012A
:102F0000408151816281738181E498E00E941F6257
:102F1000488159816A817B818BE298E00E941F621F
:102F20008AE0DF91CF911F910F91FF90EF90DF909A
:102F3000CF90BF90AF9037CFDF91CF911F910F917E
:102F4000FF90EF90DF90CF90BF90AF900895CF9219
:102F5000DF92EF92FF920F931F93CF93DF938091B5
:102F6000DD05843008F01AC1E6DBAC0197FD16C11F
:102F7000982F2091490E30914A0E8A3019F09D30D9
:102F800009F0DBC0109256062115310519F40E9494
:102F9000B972E5CFF901EA50FA4F108210924A0E49
:102FA0001092490EC6EFD5E0FE018191803211F4F6
:102FB000EF01FACF8E3409F07EC0209709F47BC070
:102FC0006BEF77E0CE010E9437AB8C01892B41F08B
:102FD0006EE470E0CE0104960E94EDB2009709F411
:102FE000CE014AE050E060E070E001960E94D3A874
:102FF0006093F2057093F3058093F4059093F505C3
:10300000C0904B0ED0904C0EE0904D0EF0904E0EB6
:103010002FEFC21AD20AE20AF20A6C157D058E055C
:103020009F0529F0012B19F488EC97E02AC06AE289
:1030300070E0CE010E9416B39C01009701F1982F19
:103040009C1B10E0992339F09150FE01E90FF11D0E
:1030500080811827F7CF4AE050E060E070E0C901B6
:1030600001960E94D3A8012F10E020E030E0601705
:1030700071078207930779F089EA97E002C08FE72A
:1030800097E0DF91CF911F910F91FF90EF90DF902C
:10309000CF900C9441768091F2059091F305A09128
:1030A000F405B091F50580934B0E90934C0EA093D0
:1030B0004D0EB0934E0E8091090281111CC067E441
:1030C00070E0CE010E94EDB20097A9F04AE050E016
:1030D00060E070E001960E94D3A86430710558F456
:1030E000E8E0F7E084918F010F5F1F4F882319F00C
:1030F0005ADEF801F7CF66EF72E0CE010E94F8B217
:10310000892B11F410920A026BEF72E0CE010E943B
:10311000F8B2892B21F48FEF96E00E949F6D60E05A
:1031200073E0CE010E94F8B2892B11F40E94CD8386
:1031300061E086EF95E06ADB12CF2F3531050CF0A8
:103140000ECF9C35B9F4F7DA97FD09CF20915606DA
:10315000211105CF2091490E30914A0EA9014F5FF0
:103160005F4F50934A0E4093490EF901EA50FA4FCF
:103170008083F5CE9B3319F481E0809356068091CD
:1031800056068111ECCEC901019690934A0E8093A8
:10319000490EF901EA50FA4F4083E1CEDF91CF9119
:1031A0001F910F91FF90EF90DF90CF900895BF9205
:1031B000CF92DF92EF92FF920F931F93CF93DF9303
:1031C000CDB7DEB76E970FB6F894DEBF0FBECDBF9A
:1031D0006091A6077091A7076115710551F14DE146
:1031E00050E0CE0101967C010E9428AB1E8EF701B3
:1031F0008F010E191F09B190BB2021F19AE0B9127D
:10320000F7CF20C0B70182EF96E00E94696282E2A8
:10321000CADD8AE0C8DDBB2051F10F5F1F4F8091EE
:10322000A6079091A707080F191F1093A7070093EF
:10323000A60781E02091A6073091A707232BD1F4A0
:1032400080E018C0F701E00FF11F108260E0C701B5
:10325000DDDA882371F3EEE9F2E284916F019FEFEA
:10326000C91AD90A882371F29EDDF601F6CF00E073
:1032700010E0DBCF6E960FB6F894DEBF0FBECDBF69
:10328000DF91CF911F910F91FF90EF90DF90CF9042
:10329000BF9008958F929F92AF92BF92EF92FF924C
:1032A0000F931F93CF93DF93CDB7DEB7A0970FB6E1
:1032B000F894DEBF0FBECDBF611571058105910584
:1032C00089F100E0842E912CA12CB12C102FEE243A
:1032D000E394F12CEC0EFD1EE00EF11C07FDFA94B8
:1032E000A50194010E949EAFF7016083B901CA0154
:1032F0000F5F611571058105910541F71F3F21F1B0
:10330000E1E0F0E0EC0FFD1FE10FF11D17FDFA9574
:1033100080818A3010F097E301C090E3890F43DD8C
:103320001150ECCF80E3A0960FB6F894DEBF0FBE2D
:10333000CDBFDF91CF911F910F91FF90EF90BF9084
:10334000AF909F908F902FCDA0960FB6F894DEBFD0
:103350000FBECDBFDF91CF911F910F91FF90EF90E6
:10336000BF90AF909F908F900895EF92FF920F9330
:103370001F93CF93DF937C0184E523DCD82F882330
:1033800021F17FDBC82F1816E4F4EEE9F2E2849114
:103390008F010F5F1F4F882319F005DDF801F7CF6C
:1033A0008DE401DDB70180E090E04AE073DF6C2F2F
:1033B000CC0F770B80E098E00E943C628AE0F3DC5F
:1033C00008C080932A04D0E004C08091350E809319
:1033D0002A048D2FDF91CF911F910F91FF90EF90D5
:1033E0000895CF92DF92EF92FF926B017C0197FFDD
:1033F0000AC08DE2D8DCF094E094D094C094C11C53
:10340000D11CE11CF11C4AE0C701B601FF90EF900E
:10341000DF90CF903FCF8F929F92AF92BF92CF928B
:10342000DF92EF92FF92CF936B017C01B42E20E0EC
:1034300030E0A9010E947FAB87FF06C08DE2B3DCBC
:10344000F7FAF094F7F8F094C0E060E070E080E004
:103450009FE3CB1541F02DEC3CEC4CEC5DE30E947E
:10346000E4ABCF5FF6CF9B01AC01C701B6010E9470
:10347000FCAF6B017C010E9445B14B015C014AE04D
:1034800009DFCC2379F1C501B4010E9483AB9B0114
:10349000AC01C701B6010E94FBAF6B017C018EE25B
:1034A00082DC20E030E040E251E4C701B6010E9436
:1034B000E4AB4B015C010E9440B16B01770FEE0859
:1034C000FF08C701B6018DDFC701B6010E9485ABB9
:1034D0009B01AC01C501B4010E94FBAF6B017C01F3
:1034E000C150F9F6CF91FF90EF90DF90CF90BF9051
:1034F000AF909F908F9008954F925F926F927F92BE
:103500008F929F92AF92BF92CF92DF92EF92FF92F3
:103510000F931F93CF93DF9300D000D0CDB7DEB7CA
:103520004B0129013A01E982FA820B831C83FC01D9
:1035300084919F012F5F3F4F3E832D83882321F08D
:1035400032DCED81FE81F4CF88E22DDC42E0C30164
:10355000B20161DF49815A816B817C8184EC96E004
:103560000E941F62B601A50181EC96E00E941F62D5
:1035700089E219DC8114910449F0F40184913FEF50
:10358000831A930A8823D1F00EDCF7CF8AE02696BF
:103590000FB6F894DEBF0FBECDBFDF91CF911F9164
:1035A0000F91FF90EF90DF90CF90BF90AF909F90E2
:1035B0008F907F906F905F904F90F5CB26960FB6CF
:1035C000F894DEBF0FBECDBFDF91CF911F910F9159
:1035D000FF90EF90DF90CF90BF90AF909F908F9033
:1035E0007F906F905F904F9008954F925F926F928F
:1035F0007F92AF92BF92CF92DF92EF92FF920F93A2
:103600001F93CF93DF93CDB7DEB762970FB6F894D1
:10361000DEBF0FBECDBF69837A838B839C832D83EE
:103620003E834F83588727013801DA8AC98A8091FF
:10363000420290914302A0914402B09145028987D1
:103640009A87AB87BC878091470E85FF39C0209150
:10365000430E3091440E4091450E5091460EC801E4
:10366000B7010E94FCAF5B016C0120913F0E3091CD
:10367000400E4091410E5091420E6D817E818F81AE
:1036800098850E94FCAF6D877E878F87988B2091ED
:103690003B0E30913C0E40913D0E50913E0E6981A3
:1036A0007A818B819C810E94FCAF9B01AC01ED84EF
:1036B000FE840F85188960E070E080EA98E01CDFE6
:1036C000A989BA89AC901196BC90119712960C9169
:1036D000129713961C9120E030E0A901B501C801B2
:1036E0000E947FAB811108C0E1E0FEE185919591D8
:1036F000A591B4915C018D012091570E3091580E27
:103700004091590E50915A0EC301B2010E9422B24B
:1037100018169CF4C501D80180934202909343028D
:10372000A0934402B09345024092570E5092580E17
:103730006092590E70925A0E12D8E989FA89C080A7
:10374000D180E280F38020E030E0A901C701B6011A
:103750000E947FAB811108C0C0903E02D0903F0212
:10376000E0904002F0904102C0924202D0924302A7
:10377000E0924402F092450289819A81AB81BC813A
:1037800080934F0E9093500EA093510EB093520E13
:103790008D819E81AF81B8858093530E9093540E96
:1037A000A093550EB093560E0E94AF132091570E62
:1037B0003091580E4091590E50915A0EC301B201EA
:1037C0000E947FAB87FF14C0C501D80180934202DD
:1037D00090934302A0934402B09345024092570E47
:1037E0005092580E6092590E70925A0E0E94AF136A
:1037F0000E94384389859A85AB85BC8580934202B7
:1038000090934302A0934402B09345028091470EE7
:1038100085FF0CC0E7E8F8E084913F019FEF691A4B
:10382000790A882319F0BFDAF301F6CF62960FB652
:10383000F894DEBF0FBECDBFDF91CF911F910F91E6
:10384000FF90EF90DF90CF90BF90AF907F906F9000
:103850005F904F900895CF92DF92EF92FF920F9377
:103860001F936A01E090570EF090580E0091590E88
:1038700010915A0EFB012081318142815381FC015C
:103880006081718182819381B0DE1F910F91FF90E1
:10389000EF90DF90CF900895CF92DF92EF92FF925A
:1038A0000F931F936B01FC01E080F1800281138173
:1038B000EFE4FEE02481358146815781608171818A
:1038C0008281938192DE1F910F91FF90EF90DF90A4
:1038D000CF9008951F93CF93DF93CDB7DEB728978E
:1038E0000FB6F894DEBF0FBECDBF69837A838B839A
:1038F0009C832D833E834F8358878091470E85FF9D
:1039000006C06BE979E081EB99E00E9420760E9485
:103910000876BE016B5F7F4FCE010196BDDF10912F
:10392000DB0518701092DB050E945C2E83E397E0A4
:103930000E94864380913B0790913C07A0913D07F0
:10394000B0913E078093570E9093580EA093590E56
:10395000B0935A0E0E9485148091470E85FF06C0D1
:1039600061E779E087E899E00E94207681E0111113
:1039700080E028960FB6F894DEBF0FBECDBFDF9172
:10398000CF911F910895BF92CF92DF92EF92FF9255
:103990000F931F93CF93DF93CDB7DEB728970FB662
:1039A000F894DEBF0FBECDBFB82E8091470E85FFC5
:1039B0000EC066E479E08DE599E00E9420766B2DDB
:1039C00070E08DE399E00E943C628AE0ECD980913E
:1039D000A407B81609F488C0BB2009F463C080911D
:1039E000470E85FF0CC040E050E060EA70E48DE2D5
:1039F00099E00E941F6289E2D6D98AE0D4D980E09A
:103A000090E0A0EAB0E48D839E83AF83B887C09036
:103A1000370ED090380EE090390EF0903A0E20E03C
:103A200030E0A901C701B6010E947FAB87FF0CC03F
:103A3000A701960160E070E080EA90E40E94FBAF8D
:103A40006D837E838F83988720E030E842EA53E4D9
:103A50006D817E818F8198850E9422B2181644F470
:103A600080E090E8A2EAB3E48D839E83AF83B887B9
:103A70002D813E814F8158856091570E7091580E6F
:103A80008091590E90915A0E0E947FAB87FF0AC019
:103A900019821A821B821C82BE016F5F7F4FCE018A
:103AA0000596FADE60914F0E7091500E8091510E86
:103AB0009091520E2091530E3091540E4091550E1C
:103AC0005091560E19821A821B821C82E090570E6A
:103AD000F090580E0091590E10915A0EFE01319639
:103AE0006F0183DDB092A40780E028960FB6F894AA
:103AF000DEBF0FBECDBFDF91CF911F910F91FF9021
:103B0000EF90DF90CF90BF9008951F920F920FB665
:103B10000F9211240BB60F922F938F939F93EF93D5
:103B2000FF9320912A07E091290781E08E0F8F777C
:103B30009091C600281729F0F0E0E755F94F9083DF
:103B4000E82FE0932907FF91EF919F918F912F919B
:103B50000F900BBE0F900FBE0F901F9018952F92D5
:103B60003F924F925F926F927F928F929F92AF920D
:103B7000BF92CF92DF92EF92FF920F931F93CF935A
:103B8000DF93CDB7DEB72E970FB6F894DEBF0FBE2A
:103B9000CDBFF8948FEF9FEF9093890080938800BA
:103BA0008AE0B82E1E861D86AA24A394789480915C
:103BB000A5069091A606A091A706B091A806892B0C
:103BC0008A2B8B2B09F0D5C18091690E8823D1F007
:103BD0001092690E8091670E9091680E892B91F07A
:103BE000109266061092680E1092670E90916D0307
:103BF00080916C03981731F080916C038F5F8F7008
:103C000080936C038091670E9091680E892B09F464
:103C1000B0C10091A1061091A2062091A306309197
:103C2000A40680919D0690919E06A0919F06B0915A
:103C3000A0064091940650E060E070E0801B910B7C
:103C4000A20BB30B481759076A077B0710F4DB0177
:103C5000CA01482F800F911FA21FB31F8093A10696
:103C60009093A206A093A306B093A406809184002B
:103C7000909185008096C0907B06D0907C06E09065
:103C80007D06F0907E0600916B0610916C062091E7
:103C90006D0630916E060C0D1D1D2E1D3F1D0093EF
:103CA0007B0610937C0620937D0630937E0637FDBD
:103CB0001CC0889A00915C0310915D0320915E0303
:103CC00030915F03C0905D060C2C000CDD08EE08FF
:103CD000FF080C0D1D1D2E1D3F1D00935C0310934E
:103CE0005D0320935E0330935F03C0907F06D09006
:103CF0008006E0908106F090820600916F06109198
:103D0000700620917106309172060C0D1D1D2E1D3E
:103D10003F1D00937F061093800620938106309309
:103D2000820637FD1CC08E9A0091600310916103DA
:103D30002091620330916303C0905E060C2C000C4E
:103D4000DD08EE08FF080C0D1D1D2E1D3F1D009304
:103D50006003109361032093620330936303C09068
:103D60008306D0908406E0908506F0908606009148
:103D700073061091740620917506309176060C0D2D
:103D80001D1D2E1D3F1D0093830610938406209356
:103D900085063093860637FD21C020910B012095C2
:103DA000287020930901009164031091650320910C
:103DB000660330916703C0905F060C2C000CDD0891
:103DC000EE08FF080C0D1D1D2E1D3F1D0093640302
:103DD000109365032093660330936703C0908706B2
:103DE000D0908806E0908906F0908A0600917706C8
:103DF000109178062091790630917A060C0D1D1DE0
:103E00002E1D3F1D00938706109388062093890678
:103E100030938A0637FD1CC0149A009168031091F4
:103E2000690320916A0330916B03C09060060C2CEB
:103E3000000CDD08EE08FF080C0D1D1D2E1D3F1D9A
:103E4000009368031093690320936A0330936B0314
:103E5000209184003091850028173907C8F300911C
:103E60007B0610917C0620917D0630917E0637FD01
:103E700015C0C0906706D0906806E0906906F09083
:103E80006A060C191D092E093F0900937B06109341
:103E90007C0620937D0630937E06889800917F06ED
:103EA00010918006209181063091820637FD15C061
:103EB000C0906706D0906806E0906906F0906A06A8
:103EC0000C191D092E093F0900937F0610938006E7
:103ED00020938106309382068E980091830610917C
:103EE0008406209185063091860637FD19C0C09062
:103EF0006706D0906806E0906906F0906A060C1993
:103F00001D092E093F090093830610938406209310
:103F100085063093860620910B01287020930901B5
:103F200000918706109188062091890630918A06B3
:103F300037FD15C0C0906706D0906806E09069060E
:103F4000F0906A060C191D092E093F090093870697
:103F5000109388062093890630938A06149841505E
:103F600041F0209184003091850028173907C8F36B
:103F700081CE8091A5069091A606A091A706B0914A
:103F8000A806892B8A2B8B2B09F0EDC5E091670ED3
:103F9000F091680E309709F45CC78091A10690916A
:103FA000A206A091A306B091A40640919D0650914F
:103FB0009E0660919F067091A00684179507A6073C
:103FC000B707D0F0109266061092680E1092670E36
:103FD00090916D0380916C03981709F43AC7809112
:103FE0006C038F5F8F7080936C0300EDC02E07E031
:103FF000D02EE12CF12CE4C34091990650919A0601
:1040000060919B0670919C06481759076A077B07C9
:1040100008F4A4C1409095065090960660909706CB
:104020007090980686A997A9A0ADB1AD481659061B
:104030006A067B0608F076C14114510461047104DC
:1040400049F48091620690916306A0916406B09154
:10405000650664C1B0E0A981842D352D262DFA8135
:10406000EB817C816D815E814F8198855091C10D7E
:10407000589F712D66274091C20D489F700D611D9C
:104080001090C30D189E600D539F700D611D439FCE
:10409000600D529F600DF72FE62FF79F512D44279B
:1040A0009927F69F500D411D9B1FE79F500D411D05
:1040B0009B1FE69F400D911DF42FE92FF79FA12D27
:1040C00044279927F69FA00D411D9B1FE79FA00D38
:1040D000411D9B1FE69F400D911DF42FE92F552791
:1040E0008091620630916306209164060090F0058D
:1040F0000B2A09F483C04091EC054F9F51198B0B9B
:104100003B0B2B0B9091ED059F9F501981093B0BA9
:104110002B0BA091EE05AF9F801931092B0B4E9F01
:10412000501981093B0B2B0B9E9F801931092B0BDA
:10413000AE9F30192109F79FA12D44279927F69F9B
:10414000A00D411D9B1FE79FA00D411D9B1FE69FDA
:10415000400D911DF42FE92F4091E8054F9F510D1F
:104160008B1F3B1F2B1F9091E9059F9F500D811DB9
:104170003B1F2B1FA091EA05AF9F800D311D2B1F08
:104180004E9F500D811D3B1F2B1F9E9F800D311D8B
:104190002B1FAE9F300D211DF79FA12D442799277E
:1041A000F69FA00D411D9B1FE79FA00D411D9B1F6A
:1041B000E69F400D911DF42FE92F4091E4054F9F9C
:1041C00051198B0B3B0B2B0B9091E5059F9F5019C1
:1041D00081093B0B2B0BA091E605AF9F801931099C
:1041E0002B0B4E9F501981093B0B2B0B9E9F801967
:1041F00031092B0BAE9F3019210982C04091EC058B
:104200004F9F510D8B1F3B1F2B1F9091ED059F9FC3
:10421000500D811D3B1F2B1FA091EE05AF9F800D00
:10422000311D2B1F4E9F500D811D3B1F2B1F9E9F2D
:10423000800D311D2B1FAE9F300D211DF79FA12D2D
:1042400044279927F69FA00D411D9B1FE79FA00DB6
:10425000411D9B1FE69F400D911DF42FE92F4091BA
:10426000E8054F9F51198B0B3B0B2B0B9091E905E8
:104270009F9F501981093B0B2B0BA091EA05AF9F23
:10428000801931092B0B4E9F501981093B0B2B0BC9
:104290009E9F801931092B0BAE9F30192109F79F82
:1042A000A12D44279927F69FA00D411D9B1FE79F35
:1042B000A00D411D9B1FE69F400D911DF42FE92F7E
:1042C0004091E4054F9F510D8B1F3B1F2B1F909179
:1042D000E5059F9F500D811D3B1F2B1FA091E605FB
:1042E000AF9F800D311D2B1F4E9F500D811D3B1F19
:1042F0002B1F9E9F800D311D2B1FAE9F300D211D4A
:104300001124A983FA83EB837C836D835E834F83BF
:10431000988790E0932BA0E0B0E0A22B2DEE31E146
:1043200011E011C082A993A9A4A9B5A9F7CFB695A8
:10433000A79597958795110F2C5F3F4F42E1293044
:10434000340709F466C4F90145915591659174915A
:10435000481759076A077B0750F35BC440919006E2
:1043600050919106609192067091930648175907F3
:104370006A077B0708F0B3C180918F0681111EC0C8
:10438000DF01AE5BBF4FED90FD900D911C91139737
:104390001D962D913D914D915C9162A973A984A9BF
:1043A00095A90E943F61A0928F06E091670EF0915F
:1043B000680E42A853A864A875A882C180918B0694
:1043C00090918C06A0918D06B0918E0642AD53ADB2
:1043D00064AD75AD84179507A607B70708F06AC1E5
:1043E0000097A105B10549F440906206509063061C
:1043F000609064067090650663C130E04985482E80
:10440000292F8A2F6A855B859C853090C10D349C4D
:10441000912D22248090C20D849C900D211C10901F
:10442000C30D149C200C329E900D211C829E200CEA
:10443000389E200C692F522D699F312C8824992495
:10444000629D300C811C931E599F300C811C931E61
:10445000529D800C911C682D592D699F412D8824F7
:104460009924629D400D811C931E599F400D811C13
:10447000931E529D800C911C682D592D3324409021
:10448000620620916306809164060090F005032A7D
:1044900009F483C08090EC05869E3118430A230BF3
:1044A000830B9090ED05969E30184108230B830BEB
:1044B0004091EE05469F40182109830B859E3018D8
:1044C0004108230B830B959E40182109830B459FC0
:1044D00020198109699F412D88249924629D400DEE
:1044E000811C931E599F400D811C931E529D800C70
:1044F000911C682D592D8090E805869E310C431E35
:10450000231F831F9090E905969E300C411C231FAA
:10451000831F4091EA05469F400C211D831F859E05
:10452000300C411C231F831F959E400C211D831FAF
:10453000459F200D811D699F412D88249924629DEE
:10454000400D811C931E599F400D811C931E529D4E
:10455000800C911C682D592D8090E405869E3118A1
:10456000430A230B830B9090E505969E3018410873
:10457000230B830B4091E605469F40182109830BCE
:10458000859E30184108230B830B959E4018210906
:10459000830B459F2019810982C08090EC05869E7F
:1045A000310C431E231F831F9090ED05969E300C07
:1045B000411C231F831F4091EE05469F400C211D87
:1045C000831F859E300C411C231F831F959E400C2A
:1045D000211D831F459F200D811D699F412D88242A
:1045E0009924629D400D811C931E599F400D811C92
:1045F000931E529D800C911C682D592D8090E805CA
:10460000869E3118430A230B830B9090E905969EF2
:1046100030184108230B830B4091EA05469F401850
:104620002109830B859E30184108230B830B959E2F
:1046300040182109830B459F20198109699F412D4D
:1046400088249924629D400D811C931E599F400D22
:10465000811C931E529D800C911C682D592D8090B9
:10466000E405869E310C431E231F831F9090E505B1
:10467000969E300C411C231F831F4091E605469FE8
:10468000400C211D831F859E300C411C231F831F5E
:10469000959E400C211D831F459F200D811D1124D7
:1046A00049876A875B879C87512C522A612C712C21
:1046B000682A06C0E15BFF4F4080518062807380B2
:1046C0008DEE91E121E0FC01459155916591749148
:1046D000441555056605770508F4FBC205C38091AE
:1046E0000C0290910D02A0910E02B0910F02B7FF43
:1046F0005FC0E95BFF4FC080D180E280F3808DEE28
:1047000091E121E0FC0145915591659174914C1521
:104710005D056E057F0550F4F694E794D794C79431
:10472000220F0496A2E189309A0761F7209394063C
:1047300080E2C816D104E104F10428F470E2C72E27
:10474000D12CE12CF12C20E2C21AD108E108F108A9
:10475000C11438E0D306E104F10408F433C344E0A3
:10476000D49EC00111248351924FFC0132962591B1
:1047700034917C2D6627739FA001729F410D561FB7
:104780000694461F561F112460E070E0FC0125913D
:104790003491C901A0E0B0E0841B950BA60BB70BC8
:1047A00080930C0290930D02A0930E02B0930F021F
:1047B000C0900C02D0900D02E0900E02F0900F021B
:1047C0008091670E9091680E892B09F0C4C10E94F8
:1047D000CD619093680E8093670E892B09F4BBC15D
:1047E000E091670EF091680E808183FF48C0858953
:1047F0009689A789B08D418D528D638D748D8C0102
:104800009D01040F151F261F371F00935C03109393
:104810005D0320935E0330935F03841B950BA60B0F
:10482000B70B8093600390936103A0936203B093EE
:104830006303858D968DA78DB0A1809364039093BB
:104840006503A0936603B093670381A192A1A3A11E
:10485000B4A18093680390936903A0936A03B09313
:104860006B0390916D0380916C03981709F4AFCF9F
:1048700080916C038F5F8F7080936C03A8CF458904
:1048800056896789708D418C528C638C748C441569
:10489000550566057705B1F44115510561057105AA
:1048A000A1F0DF01AA5BBF4F9C9191FB222720F969
:1048B0009170392F3A2581E0321301C080E029132D
:1048C00002C004C081E0826001C080E0C58CD68C4B
:1048D000E78CF0A0C114D104E104F10409F0846074
:1048E0008093660610928B0610928C0610928D06AD
:1048F00010928E06109295061092960610929706C8
:104900001092980685A196A1A7A1B0A580939D06B7
:1049100090939E06A0939F06B093A00600271127B0
:104920009801081B190B2A0B3B0B00938706109369
:1049300088062093890630938A0600938306109395
:104940008406209385063093860600937F06109395
:104950008006209381063093820600937B06109395
:104960007C0620937D0630937E06440F551F661FFC
:10497000771F40936B0650936C0660936D0670939F
:104980006E06440C551C661C771C40926F065092B4
:1049900070066092710670927206CC0CDD1CEE1CE3
:1049A000FF1CC0927306D0927406E0927506F092D6
:1049B000760641A152A163A174A1440F551F661F41
:1049C000771F40937706509378066093790670932B
:1049D0007A06880F991FAA1FBB1F809367069093C2
:1049E0006806A0936906B0936A061092A106109219
:1049F000A2061092A3061092A40682A593A5A4A5D0
:104A0000B5A58093990690939A06A0939B06B093C0
:104A10009C0686A597A5A0A9B1A98093900690931E
:104A20009106A0939206B093930641A5EA5BFF4FCF
:104A300050818091610658130AC080910B0290E06A
:104A4000242F042E000C330B2817390731F0509314
:104A5000610640930B020E9491610E94F1468FEF24
:104A60009FEFDC0180930C0290930D02A0930E0245
:104A7000B0930F02E091670EF091680EDF01DE96B1
:104A8000ED90FD900D911C9122A933A944A955A93F
:104A9000E55BFF4F60817181828193810E943F615C
:104AA00010928F06E091670EF091680EE55BFF4F64
:104AB00040805180628073808DEE91E121E0FC01A5
:104AC0004591559165917491441555056605770595
:104AD00058F47694679457944794220F049649E0CB
:104AE00052E14817590759F72093940650E24516AA
:104AF00051046104710428F4F0E24F2E512C612C12
:104B0000712C90E2491A5108610871084114A8E01B
:104B10005A066104710408F479C1B4E05B9EC001D7
:104B200011248351924FFC01329625913491742DBA
:104B30006627739FA001729F410D561F0694461F62
:104B4000561F1124FC01C590D490E12CF12CC41AFD
:104B5000D50AE108F108C092A506D092A606E09217
:104B6000A706F092A8068091A5069091A606A091AE
:104B7000A706B091A806AC01BD01009721E0A207ED
:104B8000B10520F04FEF5FEF60E070E0841B950B04
:104B9000A60BB70B8093A5069093A606A093A70635
:104BA000B093A806F8948091840090918500409677
:104BB000BA94BB2061F0AD85BE85A40FB51FBE873A
:104BC000AD87A817B90710F40C94D61D02C09E87B4
:104BD0008D872D853E8530938900209388007894B9
:104BE0002E960FB6F894DEBF0FBECDBFDF91CF91EA
:104BF0001F910F91FF90EF90DF90CF90BF90AF90FB
:104C00009F908F907F906F905F904F903F902F90EC
:104C100008951093940680329105A105B10520F402
:104C200080E290E0A0E0B0E08097A109B109811591
:104C300028E09207A105B105F0F044E0949F9001AF
:104C400011242351324FF901329645915491EE27A8
:104C5000859FB001849F610D7E1F06946E1F7E1F8D
:104C60001124F901C590D490E12CF12CC61AD70A71
:104C7000E108F10821C0AC01BD0176956795579513
:104C80004795FA01EC7F9F012351364FF901C590FA
:104C9000D490F9013296459154918770849F900188
:104CA000859F300D112413E0369527951A95E1F76D
:104CB000C21AD30AE12CF12C4C0C5D1C6E1C7F1C1B
:104CC00040929506509296066092970670929806CA
:104CD00077CD7694679457944794220F049652E1C7
:104CE0008930950709F0EFCC2093940670E24716BF
:104CF00051046104710428F4A0E24A2E512C612C65
:104D0000712C50E2451A510861087108411478E08D
:104D1000570661047104F8F0A4E05A9EC001112402
:104D20008351924FFC01329625913491B42D662720
:104D3000B39FA001B29F410D561F0694461F561FF8
:104D40001124FC01C590D490E12CF12CC41AD50A91
:104D5000E108F10822C0D301C201B695A795979545
:104D60008795FC01EC7FCF018351964FFC01C590E4
:104D7000D490FC01329625913491442D4770429F86
:104D8000C001439F900D1124F3E096958795FA9505
:104D9000E1F7C81AD90AE12CF12C80918B06909189
:104DA0008C06A0918D06B0918E068C0D9D1DAE1DBA
:104DB000BF1D80938B0690938C06A0938D06B093B5
:104DC0008E06FECCD701C601B695A7959795879517
:104DD000FC01EC7FCF018351964FFC01259134916A
:104DE000FC013296459154916C2D6770649FC0010F
:104DF000659F900D112463E0969587956A95E1F77C
:104E0000281B390BC901A0E0B0E0CACCD301C20114
:104E1000B695A79597958795FC01EC7FCF018351B7
:104E2000964FFC01C590D490FC01329625913491A7
:104E3000442D4770429FC001439F900D1124E3E031
:104E400096958795EA95E1F7C81AD90AE12CF12CD5
:104E500082CE80EDC82E87E0D82EE12CF12CB7CC85
:104E60002F923F924F925F926F927F928F929F927A
:104E7000AF92BF92CF92DF92EF92FF920F931F9368
:104E8000CF93DF9300D01F92CDB7DEB70E94309052
:104E90006B017C0180910002882309F47BC0809122
:104EA0005A04882309F476C040917307509174071F
:104EB000609175077091760797018601041B150BA9
:104EC000260B370B37FD79C0833051F134F4813034
:104ED0000CF460C0EEE9F2E206C0843009F05AC07A
:104EE000EEE9F2E23BC084918F010F5F1F4F1B83FD
:104EF0000A83882329F00E94D316EA81FB81F3CF2D
:104F0000ECEAF2E184918F010F5F1F4F1B830A834C
:104F1000882309F43FC00E94D316EA81FB81F2CFB7
:104F2000EEE9F2E284918F010F5F1F4F1B830A832A
:104F3000882329F00E94D316EA81FB81F3CFE5E9AB
:104F4000F2E184918F010F5F1F4F1B830A83882337
:104F500009F10E94D316EA81FB81F3CF84918F017E
:104F60000F5F1F4F1B830A83882329F00E94D316EB
:104F7000EA81FB81F3CFEDE7F2E184918F010F5FCE
:104F80001F4F1B830A83882329F00E94D316EA81CE
:104F9000FB81F3CF2091000230E0A8EEB3E00E9445
:104FA000ECAFC60ED71EE81EF91EC0927307D09252
:104FB0007407E0927507F09276078091DD058430E2
:104FC00030F40E94D718811102C00E94A7170E94D6
:104FD0003090C0909E03D0909F03E090A003F0908B
:104FE000A103C114D104E104F10491F100913F0740
:104FF0001091400720914107309142070C0D1D1D73
:105000002E1D3F1D6B017C01C01AD10AE20AF30A72
:10501000F7FC1EC0E4EAF2E284918F010F5F1F4F9C
:105020001B830A83882329F00E94D316EA81FB811F
:10503000F3CF6091230E7091240E87EC92E10E94D1
:1050400069628AE00E94D3168EEB92E10E949F6D06
:10505000C0909A03D0909B03E0909C03F0909D0336
:10506000C114D104E104F104D9F130916D03209110
:105070006C03321749F060933F07709340078093A9
:105080004107909342072CC000913F0710914007C1
:1050900020914107309142070C0D1D1D2E1D3F1D13
:1050A000DC01CB01801B910BA20BB30BB7FD18C029
:1050B0005F9A8091360E8E7F8093360E8A9A809109
:1050C000360E8D7F8093360E809108018095817019
:1050D000809306018091360E8B7F8093360E129A54
:1050E00090916D0380916C03981791F0E0916C039F
:1050F0001DE5E19FF0011124E95BF74F608180918C
:105100006C0390916D03981729F08F5F8F70F9CF22
:105110006091980370E089E00E94318F8091D40DF6
:10512000882309F4FBC000911E0210911F02C09059
:105130002002CC82D0902102DA8260918F0370919C
:1051400090036E5F7F4F072E000C880B990B0E9417
:1051500085AB9801A6010E947FAB87FDDFC0F09070
:105160006C03212C312CE12C198280916D038F1559
:1051700009F460C08F2D90E02DE5289FF001299F54
:10518000F00D1124E051F84F458956896789708DDB
:10519000452B462B472B81F4418D528D638D748DA9
:1051A000452B462B472B41F4458D568D678D70A1BD
:1051B000452B462B472BC9F14DE5489F9001499F50
:1051C000300D1124C9018051984F6C01FC0161819F
:1051D0007281838194810E9467B24B015C01F60168
:1051E00061A172A183A194A10E9483AB2B013C0118
:1051F000F60165A176A187A190A50E9483AB9B01D2
:10520000AC01C301B2010E94D8B0A50194010E9473
:10521000E4AB5B016C0191014E2D59810E9422B2D9
:1052200018161CF41501EC2CD98281E08F0D8F70BB
:10523000F82E9BCF2091220230912302409124022C
:1052400050912502B1018E2D99810E94E4AB980105
:105250004C815A810E94FCAF6B017C019B01AC0127
:10526000B8018C819A810E9422B21816B4F0009184
:105270001A0210911B02F0911C02FC8320911D0266
:105280002A8398014F2F5A81B601C7010E9422B28A
:1052900018161CF08601EC82FA82C0907707D09035
:1052A0007807E0907907F0907A0798014C815A814D
:1052B000C701B6010E9422B21816D4F420E037EDDF
:1052C00043EA5CE3B8018C819A810E94E4AB4B0114
:1052D0005C0128E431EE4AE75FE3C701B6010E94B2
:1052E000E4ABA50194010E94FCAF8B018C839A83EF
:1052F000C801AC81BA818093770790937807A09317
:105300007907B0937A07B801CD010E9440B170933C
:10531000900360938F0380E00E94996F0E94B9729E
:10532000C0908E03C9820C2D013009F08DC0809190
:105330008B0781110CC00E94309060938707709397
:1053400088078093890790938A07C0928B07809182
:105350007F0781110DC00E94309060937B0770938E
:105360007C0780937D0790937E0781E080937F0781
:105370000E9430906B017C01809187079091880793
:10538000A0918907B0918A07A7019601281B390BC4
:105390004A0B5B0BDA01C90180319742A105B105C7
:1053A000A0F18090DA079090DB07A090DC07B09026
:1053B000DD070E94628D6093DA077093DB078093AC
:1053C000DC079093DD070091E2071091E30720913D
:1053D000E4073091E507081919092A093B09DC019E
:1053E000CB01800F911FA21FB31F8093E207909300
:1053F000E307A093E407B093E507C0928707D09234
:105400008807E0928907F0928A0780917B07909144
:105410007C07A0917D07B0917E0797018601081B4C
:10542000190B2A0B3B0BD901C80180389E4EA105F0
:10543000B10550F0C0927B07D0927C07E0927D07C7
:10544000F0927E070E94C86380919503882309F437
:1054500044C00E94309000919103109192032091DA
:10546000930330919403DC01CB01801B910BA20BC1
:10547000B30BB7FD32C00E9430906B017C012091CC
:10548000950330E0A8EEB3E00E94ECAFC60ED71E45
:10549000E81EF91EC0929103D0929203E09293030A
:1054A000F09294030E94936E8AE00F900F900F90F9
:1054B0000F90DF91CF911F910F91FF90EF90DF90B0
:1054C000CF90BF90AF909F908F907F906F905F90A4
:1054D0004F903F902F900C94D3160F900F900F90F9
:1054E0000F90DF91CF911F910F91FF90EF90DF9080
:1054F000CF90BF90AF909F908F907F906F905F9074
:105500004F903F902F9008955F9A8091360E8E7F36
:105510008093360E8A9A8091360E8D7F8093360E58
:105520008091080180958170809306018091360EEC
:105530008B7F8093360E129A08952F923F924F924E
:105540005F926F927F928F929F92AF92BF92CF9213
:10555000DF92EF92FF920F931F93CF93DF93CDB71C
:10556000DEB7CC54D1090FB6F894DEBF0FBECDBF65
:1055700080913B02882321F085E29EE00E945268E0
:105580008091470E83FDA9C0C090310ED090320E9D
:10559000E090330EF090340E20915B0E30915C0E53
:1055A00040915D0E50915E0EC701B6010E947FAB27
:1055B000882309F492C080912904811133C060913D
:1055C000E10D7091E20D8091E30D9091E40D0E9448
:1055D00040B120910702309108026217730714F559
:1055E000C0925B0ED0925C0EE0925D0EF0925E0E69
:1055F000EEE9F2E284917F019FEFE91AF90A88232C
:1056000021F00E94D316F701F5CFE2E6F2E1849192
:105610007F01AFEFEA1AFA0A882321F00E94D3161D
:10562000F701F5CF8090310E9090320EA090330E9E
:10563000B090340E20915B0E30915C0E40915D0E67
:1056400050915E0EC501B4010E94FBAF6B017C015D
:1056500020E030E0A9010E9422B287FF04C0F7FADF
:10566000F094F7F8F094E091350EB4E0EB9FF00180
:105670001124EF5FFD4F2081318142815381C701A9
:10568000B6010E94E4AB20E030E048E453E40E941D
:1056900022B2181614F580925B0E90925C0EA092C6
:1056A0005D0EB0925E0EEEE9F2E284917F019FEF13
:1056B000E91AF90A882321F00E94D316F701F5CFE1
:1056C000E3E4F2E184917F01AFEFEA1AFA0A88235A
:1056D00021F00E94D316F701F5CF80915004C090BD
:1056E000250ED090260EE090270EF090280E809088
:1056F000290E90902A0EA0902B0EB0902C0E609147
:105700003C0270913D02811151C0072E000C880BA4
:10571000990B0E9485AB2091420230914302409147
:105720004402509145020E94E4AB2AE037ED43E287
:105730005CE30E94E4AB69AB7AAB8BAB9CAB709043
:10574000350E80912D0E90912E0EA0912F0EB091BE
:10575000300EC982DA82EB82FC82898A9A8AAB8A0D
:10576000BC8A89A39AA3ABA3BCA31DA61EA61FA691
:1057700018AAAE014F5D5F4FBE016F5E7F4FCE0135
:1057800001960E949E43FE01BD966F01E72C8E019B
:105790000F5C1F4F21E33EE0AE014F5D5F4FBE0146
:1057A0006F5E7F4FCE010196E5D6B8C0072E000C84
:1057B000880B990B0E9485AB2091420230914302E5
:1057C00040914402509145020E94E4AB2AE037ED3B
:1057D00043E25CE30E94E4AB6DA77EA78FA798AB82
:1057E00020914F0E3091500E4091510E5091520E1B
:1057F000C701B6010E94FBAF25966CAF7DAF8EAF9F
:105800009FAF25972091530E3091540E4091550E25
:105810005091560EC501B4010E94FBAF2B013C0113
:1058200020E030E0A90125966CAD7DAD8EAD9FAD39
:1058300025970E947FAB882309F493C02091570ECF
:105840003091580E4091590E50915A0E60912D0E84
:1058500070912E0E80912F0E9091300E0E94FBAF12
:1058600029966CAF7DAF8EAF9FAF299720915B0ECD
:1058700030915C0E40915D0E50915E0E6091310E44
:105880007091320E8091330E9091340E0E94FBAFD6
:1058900021966CAF7DAF8EAF9FAF219725962CAD33
:1058A0003DAD4EAD5FAD2597CA01B9010E94E4AB95
:1058B0006B017C01A3019201C301B2010E94E4AB20
:1058C0009B01AC01C701B6010E94FCAF6B017C01DA
:1058D00029962CAD3DAD4EAD5FAD2997CA01B901FA
:1058E0000E94E4AB9B01AC01C701B6010E94FCAF72
:1058F0000E9467B26B017C012DEB37E346E855E36C
:105900000E947FAB87FD6AC02DEB37E346E855E385
:10591000C701B6010E947FAB87FF78C080E1E5E256
:10592000FEE0AFE4BEE001900D928A95E1F7C45B22
:10593000DF4F0FB6F894DEBF0FBECDBFDF91CF9122
:105940001F910F91FF90EF90DF90CF90BF90AF909D
:105950009F908F907F906F905F904F903F902F908F
:10596000089520E030E0A901C301B2010E947FAB9D
:10597000811164CF7090350E19AA1AAA1BAA1CAA0D
:10598000C982DA82EB82FC828D829E82AF82B886E7
:1059900080912D0E90912E0EA0912F0EB091300E71
:1059A00089879A87AB87BC87AE01475F5F4FBE018F
:1059B0006B5F7F4FCE0101960E949E43FE01F196E0
:1059C0006F01E72C8E01035D1F4F21E33EE0AE0126
:1059D000475F5F4FBE016B5F7F4FE4CE20E030E05A
:1059E000A90121966CAD7DAD8EAD9FAD21970E9432
:1059F00022B22196CCACDDACEEACFFAC219787FF98
:105A000083CFF7FAF094F7F8F0947ECF20E030E0FF
:105A100040EA50E4C701B6010E94D8B00E9445B1E7
:105A20001B01672B19F422242394312CB10180E04F
:105A300090E00E9483AB9B01AC0160E070E080E8E5
:105A40009FE30E94D8B04B015C019B01AC01C701F0
:105A5000B6010E94E4AB2D966CAF7DAF8EAF9FAFC9
:105A60002D97A501940125966CAD7DAD8EAD9FADB2
:105A700025970E94E4AB698B7A8B8B8B9C8BA5015D
:105A80009401C301B2010E94E4AB6D8B7E8B8F8BBE
:105A9000988FA501940129966CAD7DAD8EAD9FAD1B
:105AA00029970E94E4AB698F7A8F8B8F9C8FA50119
:105AB000940121966CAD7DAD8EAD9FAD21970E9476
:105AC000E4AB6D8F7E8F8F8F98A380E1EFE4FEE0D3
:105AD000DE01119601900D928A95E1F79924939435
