:100000000C94CE150C94FF150C94FF150C94FF1551
:100010000C94FF150C94FF150C94FF150C94FF1510
:100020000C94FF150C9472210C9472210C94722183
:100030000C94FF150C94FF150C94FF150C94FF15F0
:100040000C94FF150C9490240C94FF150C94FF1540
:100050000C94FF150C94FF150C94C6220C942821C7
:100060000C94FF150C94029D0C94FF150C94FF1535
:100070000C94FF150C94FF150C94FF150C94FF15B0
:100080000C94FF150C94FF150C94FF150C94FF15A0
:100090000C94FF150C94FF150C94FF150C94FF1590
:1000A0000C94FF150C94FF150C94FF150C94FF1580
:1000B0000C94FF150C94FF150C94FF150C94FF1570
:1000C0000C94FF150C94FF150C94FF150C94FF1560
:1000D0000C94FF150C94FF150C94FF150C94FF1550
:1000E0000C94FF15084AD73B3BCE016E84BCBFFD84
:1000F000C12F3D6C74319ABD56833DDA3D00C77FF8
:1001000011BED9E4BB4C3E916BAAAABE0000008090
:100110003F05A84CCDB2D44EB93836A9020C50B91F
:10012000918688083CA6AAAA2ABE000000803F004B
:100130000C94791C0C94B0180C94CA1C0C94D11714
:100140000C9479160C9494160C94D41C0C94B01640
:100150000C949E160C948B160C9446180C94E81C68
:100160000C94A6160C947F160C94811C0C945E18AB
:100170000C94B4160C94A71C0C946F1C0C94C01C0B
:100180000C94EA170C94561C0C9487160C94E917DF
:100190000C94BA160C94A2160C94DE1C0C94891CB8
:1001A0000C94AC160C945B1C0C94931C0C94981639
:1001B0000C942E160C94B9160C94651C0C94831692
:1001C0000C949D1C0C94209E0C94B61C0C944E1CFC
:1001D0000C94BE160C948E164E414E494E495459FD
:1001E000494E46CDCCCC3D0AD7233C17B7D1387702
:1001F000CC2B329595E6241FB14F0A000020410018
:1002000000C84200401C4620BCBE4CCA1B0E5AAE61
:10021000C59D7445340045330045320045310045E5
:1002200030005A32005932005832005A00590058F2
:10023000004C4556454C494E4700434F4D4D554E99
:1002400049434154494F4E0044525952554E00457E
:1002500052524F525300494E464F004543484F00BB
:1002600020746F6F206C6F6E672065787472757381
:10027000696F6E2070726576656E7465640A002021
:10028000636F6C6420657874727573696F6E20702B
:10029000726576656E7465640A00FFFDFCFAF8F617
:1002A000F4F2F0EEECEAE9E7E5E3E1E0DEDCDAD9EE
:1002B000D7D5D4D2D0CFCDCBCAC8C7C5C3C2C0BF93
:1002C000BDBCBAB9B7B6B4B3B2B0AFADACAAA9A809
:1002D000A6A5A4A2A1A09E9D9C9A99989795949357
:1002E00092908F8E8D8B8A89888786848382818085
:1002F0007F7E7D7B7A797877767574737271706F93
:100300006E6D6C6B6A696867666564636261605F85
:100310005E5D5C5B5A59585857565554535251506C
:10032000504F4E4D4C4B4A4A494847464645444338
:10033000424241403F3E3E3D3C3B3B3A39383837F4
:10034000363535343332323130302F2E2E2D2C2BA2
:100350002B2A292928272726252524232322212142
:1003600020201F1E1E1D1C1C1B1B1A1919181817D4
:100370001616151514131312121111100F0F0E0E5D
:100380000D0D0C0C0B0A0A090908080707060605DB
:100390000504040303020201000046696C616D65F7
:1003A0006E7420757365643A200053746174733AF7
:1003B00020002C204C6F6E67657374206A6F623A60
:1003C0002000546F74616C2074696D653A2000538D
:1003D000746174733A20002C204661696C65643A3C
:1003E00020002C2046696E69736865643A200050CD
:1003F00072696E74733A200053746174733A20000A
:1004000024F4D43050C38E20C2A24017828B7011C6
:10041000127A910D816CD90AA861E108C758660764
:10042000615143061E4B5D05C145A7041A411104E5
:10043000093D9803713931034036DB02653391027F
:10044000D4305402802E1D02632CEE01752AC501A2
:10045000B028A001102781018F2564012B244B01B6
:10046000E0223401AC211F018D200D01801FFC0012
:10047000841EED00971DDF00B81CD200E61BC600ED
:10048000201BBC00641AB200B219A8000A19A0000F
:100490006A189900D117910040178B00B516840097
:1004A00031167E00B31579003A157300C7146F003A
:1004B00058146A00EE1366008813630025135E006B
:1004C000C7125B006C12570015125400C111510085
:1004D00070114F0021114B00D61049008D104700BC
:1004E0004610440002104200C00F4000800F3E0042
:1004F000420F3C00060F3B00CB0E3800930E370036
:100500005C0E3500270E3400F30D3200C10D3100B2
:10051000900D3000600D2E00320D2D00050D2C00C9
:10052000D90C2B00AE0C2900850C29005C0C27008F
:10053000350C27000E0C2600E80B2400C40B240009
:10054000A00B23007D0B23005A0B2100390B210047
:10055000180B2000F80A1F00D90A1E00BB0A1E0053
:100560009D0A1D00800A1D00630A1C00470A1B002B
:100570002C0A1B00110A1A00F7091A00DD091900DC
:10058000C4091900AB091900920917007B0918006A
:10059000630917004C0916003609160020091600D9
:1005A0000A091500F5081500E0081400CC0814002D
:1005B000B8081400A4081400900813007D08120065
:1005C0006B08130058081200460812003408110086
:1005D000230811001208110001081100F007100093
:1005E000E0071000D0071000C0071000B0070F0090
:1005F000A107100091070E0083070F0074070F007A
:1006000065070E0057070E0049070E003B070D0057
:100610002E070E0020070D0013070D0006070D0022
:10062000F9060C00ED060D00E0060C00D4060C00E7
:10063000C8060C00BC060C00B0060C00A4060B009B
:1006400099060C008D060B0082060B0077060B0046
:100650006C060B0061060A0057060B004C060A00E8
:1006600042060A0038060A002E060A0024060A007E
:100670001A060A001006090007060A00FD0509000F
:10068000F4050900EB050900E2050900D905090098
:10069000D0050900C7050900BE050900B505080019
:1006A000AD050800A50509009C0508009405080093
:1006B0008C050800840508007C0508007405080006
:1006C0006C050700650508005D0507005605080074
:1006D0004E050700470507004005080038050700DC
:1006E000310507002A050700230507001C05060041
:1006F000160507000F05070008050600020507009C
:10070000FB040600F5040700EE040600E8040600FA
:10071000E2040700DB040600D5040600CF0406004F
:10072000C9040600C3040600BD040600B7040600A1
:10073000B1040500AC040600A6040600A0040500F0
:100740009B04060095040500900406008A04050039
:1007500085040500800406007A0405007504050080
:10076000700405006B0405006604050061040500C3
:100770005C04050057040500520405004D04050003
:1007800048040500430405003E0404003A04050043
:1007900035040500300404002C040500270404007F
:1007A000230405001E0404001A04040016040500B6
:1007B000110404000D0404000904050004040400ED
:1007C00000040400FC030400F8030400F403040024
:1007D000F0030400EC030400E8030400E403040055
:1007E000E0030400DC030400D8030400D403040085
:1007F000D0030400CC030400C8030300C5030300B6
:1008000024F404D9201BC40C5C0E9804C4095F02B4
:1008100065077101F405F900FB04B3004804870083
:10082000C10369005803550003034500BE023A00A6
:100830008402310053022A0029022500040220000C
:10084000E4011C00C8011900AF0117009801140051
:1008500084011300710110006101100051010E00AC
:1008600043010D0036010B002B010B0020010B0092
:10087000150109000C01090003010800FB00080034
:10088000F3000800EB000700E4000600DE000600AD
:10089000D8000600D2000600CC000500C700050005
:1008A000C2000500BD000400B9000400B50004004A
:1008B000B1000400AD000400A9000400A50003007D
:1008C000A20003009F0004009B00030098000300A7
:1008D0009500020093000300900003008D000200C9
:1008E0008B000300880002008600020084000300E1
:1008F000810002007F0002007D0002007B000200F8
:100900007900020077000100760002007400020006
:1009100072000100710002006F0002006D00010012
:100920006C0002006A00010069000200670001001B
:100930006600010065000100640002006200010021
:1009400061000100600001005F0002005D00010025
:100950005C0001005B0001005A0001005900010029
:100960005800010057000100560001005500010029
:100970005400010053000000530001005200010028
:1009800051000100500001004F0001004E00000026
:100990004E0001004D0001004C0001004B00000022
:1009A0004B0001004A00010049000100480000001E
:1009B0004800010047000100460000004600010019
:1009C0004500000045000100440001004300000014
:1009D000430001004200000042000100410000000D
:1009E00041000100400001003F0000003F00010005
:1009F0003E0000003E0001003D0000003D000100FF
:100A00003C0000003C0000003C0001003B000000F6
:100A10003B0001003A0000003A00010039000000EC
:100A200039000100380000003800000038000100E3
:100A300037000000370001003600000036000000DB
:100A400036000100350000003500000035000100CF
:100A500034000000340000003400010033000000C6
:100A600033000000330001003200000032000000BB
:100A700032000100310000003100000031000100AF
:100A80003000000030000000300001002F000000A6
:100A90002F0000002F0000002F0001002E0000009A
:100AA0002E0000002E0001002D0000002D0000008F
:100AB0002D0000002D0001002C0000002C00000083
:100AC0002C0000002C0001002B0000002B00000077
:100AD0002B0000002B0001002A0000002A0000006B
:100AE0002A0000002A00010029000000290000005F
:100AF0002900000029000000290001002800000052
:100B00002800000028000000280000002800010044
:100B10002700000027000000270000002700000039
:100B2000270001002600000026000000260000002B
:100B3000260000002600010025000000250000001E
:100B40002500000025000000250000002500010010
:100B50002400000024000000240000002400000005
:100B600024000100230000002300000023000000F7
:100B700023000000230000002300000023000100E8
:100B800022000000220000002200000022000000DD
:100B900022000000220001002100000021000000CE
:100BA00021000000210000002100000021000000C1
:100BB00021000100200000002000000020000000B3
:100BC00020000000200000002000000020000000A5
:100BD000200001001F0000001F0000001F00000097
:100BE0001F0000001F0000001F0000001F00010088
:100BF0001E0000001E0000001E0000001E0000007D
:100C0000393000003325000087190000B00F0000C4
:100C1000DB080000BD040000740200003F0100007A
:100C200023646566696E652044454641554C545FB2
:100C30004B64200023646566696E65204445464127
:100C4000554C545F4B69200023646566696E6520CE
:100C500044454641554C545F4B7020005049442058
:100C60004175746F74756E652066696E6973686529
:100C700064212050757420746865206C6173742041
:100C80004B702C204B6920616E64204B6420636F95
:100C90006E7374616E74732066726F6D2062656C22
:100CA0006F7720696E746F20436F6E666967757227
:100CB0006174696F6E2E680A005049442041757452
:100CC0006F74756E65206661696C65642120746956
:100CD0006D656F75740A00453120544845524D4189
:100CE0004C2052554E4157415900546865726D6110
:100CF0006C2052756E6177617900453120486561DD
:100D000074696E67206661696C656400486561742A
:100D1000696E67206661696C6564005049442041D2
:100D200075746F74756E65206661696C65642120E9
:100D300054656D706572617475726520746F6F2093
:100D4000686967680A00204B643A2000204B693AC2
:100D50002000204B703A20000A20436C61737369B5
:100D60006320504944200A002054753A2000204B4B
:100D7000753A2000206D61783A2000206D696E3A46
:100D8000200020643A200020626961733A200050FC
:100D90004944204175746F74756E65207374617277
:100DA000740A00504944204175746F74756E652053
:100DB0006661696C656421204261642065787472A3
:100DC00075646572206E756D6265720A0062656495
:100DD0000A002C2073797374656D2073746F7070C2
:100DE000656421204865617465725F49443A20005A
:100DF0001000600350012C0190012201D001180164
:100E000010020E0170020401E002FA006003F0001B
:100E10000004E600B004DC00A005D200B006C80063
:100E20000008BE00A009B400800BAA00D00DA000ED
:100E300090109600C0138C0070178200901B7800F1
:100E400010206E00C0246400E02D500080353C006E
:100E5000A03A2800A03D1400003F0000A03FECFF96
:100E60004531204572723A204D415854454D50004D
:100E70004572723A204D415854454D5020424544E8
:100E8000004D415854454D50207472696767657232
:100E90006564004531204572723A204D494E5445F3
:100EA0004D50004572723A204D494E54454D5020E8
:100EB000424544004D494E54454D50207472696777
:100EC000676572656400202F002042403A00204090
:100ED0003A002F022D022B022802250222021F02B5
:100EE0001C02190216021302747275650066616CA9
:100EF0007365002074656D7065726174757265202C
:100F00007072657761726E20747269676765726569
:100F1000643A2000207072657761726E20666C61A1
:100F20006720636C65617265640A0000002100241B
:100F30000027002A002D00300033000101000004CA
:100F40000107010A0100000A0B02090C0D0E080737
:100F50000304010000000000000000000000000089
:100F60000000000000000000000000000000000081
:100F7000001211100000000000000000000000003E
:100F8000000000000000000000000047322F47333F
:100F90002062616420706172616D65746572730AAC
:100FA000003C3C3C204732380A003E20686F6D69A7
:100FB0006E67206E6F74206E65656465642C2073A7
:100FC0006B69700A003C3C3C204732380A00526191
:100FD000697365205A20286265666F726520686FA4
:100FE0006D696E672920746F20003E20656E647302
:100FF000746F70732E656E61626C652874727565AE
:10100000290A003E3E3E204732380A00205A3A2044
:101010000020593A200042656420583A20004D656E
:10102000736820706F696E742063616E6E6F7420D8
:101030006265207265736F6C7665640A0050726930
:101040006E742074696D653A20006F6666005B02FD
:1010500056024F0248023A02310244454255473A8D
:10106000004D3131332053006F6B00544845524DD1
:10107000414C5F50524F54454354494F4E004155E7
:10108000544F5245504F52545F53445F5354415450
:10109000555300454D455247454E43595F504152C7
:1010A00053455200434153455F4C494748545F42C2
:1010B00052494748544E45535300544F47474C45B7
:1010C0005F4C494748545300534F4654574152458B
:1010D0005F504F574552004255494C445F5045526E
:1010E00043454E54004C4556454C494E475F44419C
:1010F0005441005A5F50524F4245004155544F4CA5
:101100004556454C005052494E545F4A4F4200509C
:10111000524F4752455353004155544F5245504F3B
:1011200052545F54454D5000564F4C554D45545206
:10113000494300454550524F4D0053455249414C9B
:101140005F584F4E5F584F4646004649524D5741F3
:1011500052455F4E414D453A4D61726C696E204A71
:101160004532305F3232303232385F313235312001
:10117000534F555243455F434F44455F55524C3A98
:1011800068747470733A2F2F6769746875622E6380
:101190006F6D2F467261636B74616C576F726B7306
:1011A0002F4A756C6961323031384D61726C696EED
:1011B0003131392050524F544F434F4C5F564552B6
:1011C00053494F4E3A312E30204D414348494E4508
:1011D0005F545950453A4A756C6961204578746589
:1011E0006E6465642045585452554445525F434FE0
:1011F000554E543A3120555549443A3031303861D2
:101200003539392D336239352D343138362D613643
:1012100033362D3036396562353938373963300A1F
:10122000002F2F2000205400205200416363656C82
:1012300065726174696F6E3A2050003F4A206F7585
:1012400074206F662072616E67652028302E303101
:1012500020746F20302E33290A00000000000000A7
:101260007A430000A043546F6F206661722066725B
:101270006F6D207265666572656E636520706F695B
:101280006E740A00FF010120466C6F773A2000005F
:101290000136372603FFFFFF3F3C3D38FF0FFFFFBE
:1012A000402E303EFF13FFFFFF41050C0809FFFFF2
:1012B000FF1A1C18FFFF4208440AFF43496E76617B
:1012C0006C69642065787472756465720A002064C4
:1012D0003A0020693A0020703A0043290A0061620E
:1012E0006C656420286D696E2074656D7020004304
:1012F0006F6C6420657874727564657320617265C3
:1013000020004E6F2063617365206C696768740A02
:10131000004D65736820706F696E742063616E6E36
:101320006F74206265207265736F6C7665640A0065
:101330004D34323120696E636F7272656374207050
:101340006172616D657465722075736167650A000D
:10135000454550524F4D204F4B0A003F5A206F7564
:1013600074206F662072616E676520282D323020F0
:10137000746F203230290A003A200050726F626583
:10138000205A204F66667365740041637469766500
:101390002045787472756465723A2000496E7661F2
:1013A0006C69642065787472756465720A003C3CEF
:1013B0003C2067636F64655F540A00203A20414611
:1013C0005445520A00202063757272656E745F7016
:1013D0006F736974696F6E3D00203A204245464F35
:1013E00052450A00202063757272656E745F706FDB
:1013F000736974696F6E3D003E3E3E2067636F64A3
:10140000655F54280020503A00205A3A0020593A8B
:101410000020583A00656E6473746F7073206869B9
:10142000743A2000000020002300260029002C0030
:101430002F00320000010000030106010901000035
:101440002200250028002B002E003100340002016C
:101450000000050108010B01050505050705080841
:101460000808020202020A0A08080404040401012E
:101470000101010101010303030303030303040743
:1014800007070C0C0C0C0C0C0C0C020202020606DA
:101490000606060606060B0B0B0B0B0B0B0B0102CD
:1014A0001020200808102040102040800201020176
:1014B000080402010102040810204080804020102E
:1014C0000804020180040201804020100804020187
:1014D00008040201010204081020408001020408EF
:1014E00010204080556E6B6E6F776E20636F6D6D50
:1014F000616E643A202200203A203C3C3C20727508
:101500006E5F7A5F70726F62650A00202063757289
:1015100072656E745F706F736974696F6E3D0020E1
:1015200044697363726570616E63793A00326E6408
:101530002050726F6265205A3A00203A203C3C3CB1
:101540002072756E5F7A5F70726F62650A0020208C
:1015500063757272656E745F706F736974696F6EB4
:101560003D00534C4F572050726F62652066616991
:101570006C210A003173742050726F6265205A3AF0
:1015800000203A203C3C3C2072756E5F7A5F70729E
:101590006F62650A00202063757272656E745F70F9
:1015A0006F736974696F6E3D0046415354205072E9
:1015B0006F6265206661696C210A00203A203E3E18
:1015C0003E2072756E5F7A5F70726F62650A0020EE
:1015D0002063757272656E745F706F736974696F82
:1015E0006E3D003C3C3C2070726F62655F70740A17
:1015F0000050726F62696E67206661696C65640A8B
:101600000050524F42494E475F4641494C45440ABB
:1016100000205A3A200020593A20004265642058A0
:101620003A2000203A200A00202063757272656E0D
:10163000745F706F736974696F6E3D005F72656C83
:101640006174697665290A002C20002C20002C206A
:10165000002C20003E3E3E2070726F62655F707409
:1016600028002066697273740A005A0059005800F5
:10167000486F6D6520006563686F3A0045312054FE
:101680004845524D414C2052554E41574159004218
:10169000454420544845524D414C2052554E4157E7
:1016A000415900546865726D616C2052756E6177A6
:1016B0006179005072696E7465722068616C74653E
:1016C000642E206B696C6C28292063616C6C6564E6
:1016D000210A004572726F723A002569730025690C
:1016E0006D20256973002569682025696D202569AD
:1016F0007300256964202569682025696D202569A6
:101700007300256979202569642025696820256989
:101710006D20256973002C20002C2000203A2073B6
:10172000796E635F706C616E5F706F736974696FFF
:101730006E0A00202063757272656E745F706F733D
:101740006974696F6E3D00656E7175657565696E6A
:10175000672022005072696E7465722073746F7016
:101760007065642064756520746F206572726F7295
:10177000732E2046697820746865206572726F72D6
:1017800020616E6420757365204D39393920746F7E
:1017900020726573746172742E202854656D7065B3
:1017A0007261747572652069732072657365742E39
:1017B00020536574206974206166746572207265B7
:1017C0007374617274696E67290A004E6F204368F2
:1017D00065636B73756D2077697468206C696E65DD
:1017E000206E756D6265722C204C617374204C699B
:1017F0006E653A2000636865636B73756D206D6973
:10180000736D617463682C204C617374204C696E35
:10181000653A20004C696E65204E756D62657220D8
:101820006973206E6F74204C617374204C696E650F
:10183000204E756D6265722B312C204C61737420C3
:101840004C696E653A20004D3131300020496E768A
:10185000616C69642065787472756465722000003B
:10186000000000000000000000000000007A4300BB
:10187000007A430000A0430A20736F66745F656EB0
:101880006473746F705F6D6178203D20000A20736F
:101890006F66745F656E6473746F705F6D696E20E0
:1018A0003D20000A20706F736974696F6E5F736802
:1018B000696674203D200020617869733A0A2068C7
:1018C0006F6D655F6F6666736574203D2000466FBF
:1018D0007220003C3C3C20646F5F626C6F636B69FC
:1018E0006E675F6D6F76655F746F0A003E3E3E20E7
:1018F000646F5F626C6F636B696E675F6D6F766557
:101900005F746F00203A2073657475705F666F7244
:101910005F656E6473746F705F6F725F70726F6219
:10192000655F6D6F76650A00202063757272656E63
:10193000745F706F736974696F6E3D00203A206345
:101940006C65616E5F75705F61667465725F656E10
:101950006473746F705F6F725F70726F62655F6DDA
:101960006F76650A00202063757272656E745F7011
:101970006F736974696F6E3D00646F5F70726F6240
:10198000655F726169736528006465706C6F793A90
:101990002000203A207365745F70726F62655F6427
:1019A00065706C6F7965640A0020206375727265DA
:1019B0006E745F706F736974696F6E3D00203A20BA
:1019C0003C3C3C20646F5F70726F62655F6D6F7648
:1019D000650A00202063757272656E745F706F73A4
:1019E0006974696F6E3D00203A203E3E3E20646F70
:1019F0005F70726F62655F6D6F76650A00202063AD
:101A0000757272656E745F706F736974696F6E3D25
:101A10000072657365745F6265645F6C6576656CA2
:101A20000A002028646F6E65290A00457874726187
:101A3000706F6C617465205B0042696C696E6561F2
:101A400072204C6576656C696E6720477269643AEE
:101A50000A003C3C3C20646F5F686F6D696E675F95
:101A60006D6F766528005B00290A002C20002C2071
:101A7000003E3E3E20646F5F686F6D696E675F6D0C
:101A80006F76652800202864697361626C6564293B
:101A90000A0041424C2041646A7573746D656E742E
:101AA000205A0020480020570020590042696C69E4
:101AB0006E65617220477269642058002028656E47
:101AC00061626C6564290A0042494C494E454152A5
:101AD000004175746F20426564204C6576656C69C1
:101AE0006E673A200020262053616D65205A2061E0
:101AF0007300204E6F7A7A6C65290A0020262041F7
:101B0000626F76650020262042656C6F77002D425B
:101B100061636B002028526967687400205A3A009C
:101B200020593A0050726F6265204F666673657483
:101B300020583A004649585F4D4F554E5445445F32
:101B400050524F42450A0050726F62653A2000437E
:101B50006F72650A004D616368696E652054797023
:101B6000653A20003C3C3C204732390A0020636F34
:101B700072726563746564205A3A00473239207581
:101B80006E636F72726563746564205A3A00203A1E
:101B9000203E2070726F62696E6720636F6D706C9B
:101BA0006574650A00202063757272656E745F70DB
:101BB0006F736974696F6E3D002028445259525505
:101BC0004E2900473239204175746F2042656420E8
:101BD0004C6576656C696E67003F20284C2C522C52
:101BE000462C4229206F7574206F6620626F756ED7
:101BF00064732E0A003F2856296572626F73652050
:101C00006C6576656C20697320696D706C617573A5
:101C100069626C652028302D34292E0A00426164E7
:101C2000205A2076616C75650A004E6F2062696CDF
:101C3000696E65617220677269640A003C3C3C20F1
:101C40004732390A003E204175746F2D6C65766508
:101C50006C206E6F74206E65656465642C20736BF8
:101C600069700A004732380A473239003E204E6F09
:101C70007420686F6D65642E20456E71756575659D
:101C8000696E672047323820666F6C6C6F776564C9
:101C9000206279204732390A00203A203E3E3E2019
:101CA0004732390A00202063757272656E745F7066
:101CB0006F736974696F6E3D0050726F7465637401
:101CC00065642050696E0A005374616E64617264C9
:101CD00020446576696174696F6E3A200020526114
:101CE0006E67653A2000204D61783A2000204D69EA
:101CF0006E3A20004D65616E3A200046696E697348
:101D0000686564210A002072616E67653A200020D0
:101D10006D61783A2000206D696E3A200020736969
:101D2000676D613A2000206D65616E3A20003A20AF
:101D30007A3A2000206F662000205A0020590020A7
:101D40005800476F696E6720746F3A00436C6F6389
:101D50006B776973650A00436F756E7465722D0049
:101D600020446972656374696F6E3A2000202020F8
:101D7000616E676C653A20005374617274696E67B6
:101D8000207261646975733A2000506F73697469D9
:101D90006F6E696E67207468652070726F62652E61
:101DA0002E2E0A003F4E756D626572206F66206CA4
:101DB00065677320696E206D6F76656D656E742042
:101DC0006E6F7420706C61757369626C6520283069
:101DD0002D3135292E0A003F2028582C5929206FF3
:101DE0007574206F6620626F756E64732E0A003FF3
:101DF00053616D706C652073697A65206E6F742015
:101E0000706C61757369626C652028342D353029DA
:101E10002E0A004D3438205A2D50726F62652052C0
:101E200065706561746162696C6974792054657369
:101E3000740A003F2856296572626F7365206C65CD
:101E400076656C20697320696D706C617573696269
:101E50006C652028302D34292E0A0020573A0020A6
:101E6000573A00205A3A0020423A0020436F756EDC
:101E70007420413A0020453A00205A3A0020593A4D
:101E800000583A003A004361703A00205A00205945
:101E900000580020204D61783A2000205A00205937
:101EA00000580020204D696E3A20004F6E20004FF0
:101EB000666600536F667420656E6473746F70732A
:101EC0003A2000426564204C6576656C696E672037
:101ED000004661696C656420746F20656E61626C98
:101EE0006520426564204C6576656C696E670A0002
:101EF000526573656E643A200020746F6F206C6FBA
:101F00006E6720657874727573696F6E2070726584
:101F100076656E7465640A0020636F6C6420657872
:101F200074727573696F6E2070726576656E746514
:101F3000640A00627573793A207061757365642074
:101F4000666F7220696E7075740A00627573793AF3
:101F50002070617573656420666F72207573657299
:101F60000A00627573793A2070726F6365737369E2
:101F70006E670A004B494C4C2063617573656420A1
:101F8000627920746F6F206D75636820696E61637C
:101F9000746976652074696D65202D206375727291
:101FA000656E7420636F6D6D616E643A2000202051
:101FB000506C616E6E6572427566666572427974C8
:101FC00065733A20002046726565204D656D6F721D
:101FD000793A2000436F6D70696C65643A204D61F9
:101FE0007220313720323032320A00207C20417595
:101FF00074686F723A20467261636B74616C20572B
:102000006F726B730A00323032322D30322D32381B
:102010002031323A353100204C61737420557064A0
:10202000617465643A20004275696C643A204A45DF
:1020300032305F3232303232385F313235310A007D
:10204000467261636B74616C20576F726B73204AC8
:10205000756C696120457874656E6465640A003149
:102060002E312E390A004D61726C696E0020536F5B
:102070006674776172652052657365740A00205733
:1020800061746368646F672052657365740A002029
:1020900042726F776E206F75742052657365740A93
:1020A000002045787465726E616C205265736574AA
:1020B0000A00506F77657255700A0073746172740C
:1020C0000A00206472697665722063757272656EAB
:1020D000743A20003C3C3C207365745F61786973FE
:1020E0005F69735F61745F686F6D652800203A20D7
:1020F0000A00202063757272656E745F706F736979
:1021000074696F6E3D005D203D20003E20686F6D5C
:10211000655F6F66667365745B003E3E3E20736567
:10212000745F617869735F69735F61745F686F6D15
:10213000652800000048420000484255558541008E
:102140000000005761726E696E673A20486F6D69D2
:102150006E672042756D702044697669736F7220D6
:102160003C20310A000202040000A0400000A04010
:102170000000004000007A4300007A430000A043C2
:102180003C3C3C20686F6D65617869732800203A9B
:10219000203E204146544552207365745F61786942
:1021A000735F69735F61745F686F6D650A002020FB
:1021B00063757272656E745F706F736974696F6E48
:1021C0003D00486F6D65203220536C6F773A0A00EE
:1021D0004D6F766520417761793A0A00486F6D65E9
:1021E000203120466173743A0A003E3E3E20686FFB
:1021F0006D656178697328006F6B004572726F724C
:102200002077726974696E6720746F20454550525B
:102210004F4D210A00454550524F4D206461746175
:1022200073697A65206572726F722E0A00290A003E
:102230002062797465733B20637263200053657478
:1022400074696E67732053746F726564202800464A
:1022500069656C642066696C616D656E745F636846
:10226000616E67655F756E6C6F61645F6C656E67EC
:102270007468206D69736D617463682E0A00466925
:10228000656C6420706C616E6E65725F78795F73E7
:102290006B65775F666163746F72206D69736D61E2
:1022A0007463682E0A004669656C6420636F6F7200
:1022B00064696E6174655F73797374656D206D69AF
:1022C000736D617463682E0A004669656C64206DE5
:1022D0006F746F725F63757272656E745F7365742D
:1022E00074696E67206D69736D617463682E0A008E
:1022F0004669656C6420706C616E6E65725F6578AE
:102300007472756465725F616476616E63655F4B5C
:10231000206D69736D617463682E0A004669656C8F
:102320006420746D635F6879627269645F74687257
:102330006573686F6C64206D69736D617463682E7A
:102340000A004669656C6420746D635F7374657020
:102350007065725F63757272656E74206D69736DFE
:10236000617463682E0A004669656C64207061724E
:102370007365725F766F6C756D65747269635F65A6
:102380006E61626C6564206D69736D617463682E43
:102390000A004669656C64206C63645F636F6E74E9
:1023A00072617374206D69736D617463682E0A00C5
:1023B0004669656C64206C70715F6C656E206D6938
:1023C000736D617463682E0A004669656C64206CE5
:1023D00063645F707265686561745F686F74656E71
:1023E000645F74656D70206D69736D617463682ED0
:1023F0000A004669656C6420706C616E6E65725F80
:102400006C6576656C696E675F616374697665207B
:102410006D69736D617463682E0A004669656C644A
:10242000207A70726F62655F7A6F6666736574207A
:102430006D69736D617463682E0A004669656C642A
:1024400020686F6D655F6F6666736574206D697374
:102450006D617463682E0A004669656C642065735B
:1024600074657070657273206D69736D61746368F3
:102470002E0A00290A002062797465733B2063727A
:102480006320002073746F726564207365747469CF
:102490006E677320726574726965766564202800C2
:1024A000202863616C63756C6174656429210A007E
:1024B00020213D2000454550524F4D20435243209E
:1024C0006D69736D61746368202D202873746F7259
:1024D00065642920002053697A653A2000496E64BA
:1024E00065783A20004669656C642066696C616DA8
:1024F000656E745F6368616E67655F756E6C6F6152
:10250000645F6C656E677468206D69736D61746378
:10251000682E0A004669656C6420706C616E6E6599
:10252000725F78795F736B65775F666163746F72F2
:10253000206D69736D617463682E0A004669656C6D
:102540006420636F6F7264696E6174655F73797321
:1025500074656D206D69736D617463682E0A004641
:1025600069656C64206D6F746F725F6375727265FC
:102570006E745F73657474696E67206D69736D61E5
:102580007463682E0A004669656C6420706C616E25
:102590006E65725F65787472756465725F6164768A
:1025A000616E63655F4B206D69736D617463682E46
:1025B0000A004669656C6420746D635F73746570AE
:1025C0007065725F63757272656E74206D69736D8C
:1025D000617463682E0A004669656C6420706172DC
:1025E0007365725F766F6C756D65747269635F6534
:1025F0006E61626C6564206D69736D617463682ED1
:102600000A004669656C64206C63645F636F6E7476
:1026100072617374206D69736D617463682E0A0052
:102620004669656C64206C70715F6C656E206D69C5
:10263000736D617463682E0A004669656C64206C72
:1026400063645F707265686561745F686F74656EFE
:10265000645F74656D70206D69736D617463682E5D
:102660000A004669656C6420706C616E6E65725F0D
:102670006C6576656C696E675F6163746976652009
:102680006D69736D617463682E0A004669656C64D8
:10269000207A70726F62655F7A6F66667365742008
:1026A0006D69736D617463682E0A004669656C64B8
:1026B00020686F6D655F6F6666736574206D697302
:1026C0006D617463682E0A004669656C64206573E9
:1026D00074657070657273206D69736D6174636881
:1026E0002E0A00204D61726C696E3D563535290AFF
:1026F0000028454550524F4D3D00454550524F4DE5
:102700002076657273696F6E206D69736D61746395
:1027100068200048617264636F6465642044656684
:1027200061756C742053657474696E6773204C6FA7
:10273000616465640A00DC050000DC05000032000D
:10274000000010270000000048430000484300003C
:10275000A041000034420000C8420000C842F0F727
:10276000FB4300000C4320204D393036003A0A006C
:1027700020286D6D2900205430204500205A00206B
:102780005900205800537465707065722064726936
:102790007665722063757272656E743A0A00202045
:1027A0004D383531205A005A2D50726F6265204FD6
:1027B00066667365740020440020490020204D3374
:1027C00030312050005049442073657474696E673D
:1027D000733A0A00205A00204A002020473239204C
:1027E0005720490020204D34323020530041757469
:1027F0006F20426564204C6576656C696E673A0AA5
:1028000000205A0020590020204D32303620580038
:10281000486F6D65206F66667365743A0A00204ADA
:102820000020540020530020204D3230352042003B
:10283000204A3C6A756E635F6465763E004164764B
:10284000616E6365643A20423C6D696E5F736567D3
:102850006D656E745F74696D655F75733E20533C82
:102860006D696E5F66656564726174653E20543C97
:102870006D696E5F74726176656C5F6665656472C2
:102880006174653E0020540020520020204D3230FB
:1028900034205000416363656C65726174696F6ECA
:1028A0002028756E6974732F7332293A20503C705A
:1028B00072696E745F616363656C3E20523C726541
:1028C00074726163745F616363656C3E20543C7431
:1028D000726176656C5F616363656C3E0A002045DA
:1028E00000205A0020590020204D3230312058005D
:1028F0004D6178696D756D20416363656C657261CA
:1029000074696F6E2028756E6974732F7332293A5B
:102910000A00204500205A0020590020204D323066
:10292000332058004D6178696D756D20666565646A
:1029300072617465732028756E6974732F73293AF8
:102940000A00204500205A0020590020204D39322D
:1029500020580053746570732070657220756E691D
:10296000743A0A0020204D3230302044300A0020D2
:10297000204D3230302044002044697361626C6520
:10298000640A0046696C616D656E742073657474C9
:10299000696E67733A002020473231202020203BA7
:1029A000007A5F70726F62653A20007A5F6D6178BD
:1029B0003A2000795F6D61783A2000785F6D696E2A
:1029C0003A20005265706F7274696E6720656E649C
:1029D00073746F70207374617475730A0000000063
:1029E0000100000001000080005555550000004026
:1029F0000033333300AAAA2A0049922400000020A1
:102A000000C7711C0099991900D14517005555153B
:102A1000003BB113002449120011111100000010F5
:102A2000000F0F0F00E3380E0043790D00CCCC0CE3
:102A300000C3300C00E8A20B0064210B00AAAA0A14
:102A400000703D0A009DD80900427B0900922409CC
:102A500000DCD30800888808001042080000000845
:102A600000F0C107008787070075500700711C0739
:102A7000003EEB0600A1BC060069900600666606F3
:102A800000703E06006118060017F4050074D105B9
:102A9000005BB00500B29005006272050055550557
:102AA0000078390500B81E0500050505004EEC0448
:102AB0000087D40400A1BD040090A704004992043B
:102AC00000C17D0400EE690400C7560400444404BC
:102AD000005C3204000821040041100400000004DE
:102AE000003FF00300F8E0030026D20300C3C30355
:102AF00000CCB503003AA803000A9B0300388E03FC
:102B000000C08103009F750300D0690300505E037D
:102B1000001D53030034480300913D030033330389
:102B20000016290300381F030097150300300C031B
:102B300000030303000BFA020049F10200BAE802A5
:102B4000005CE002002DD802002DD0020059C8021E
:102B500000B0C0020031B90200DAB10200AAAA0234
:102B600000A0A30200BC9C0200FA9502005C8F0248
:102B700000DF88020082820200457C020027760284
:102B80000027700200436A02007C640200D05E02EB
:102B9000003F590200C853020000209E11241FBEAE
:102BA000CFEFD1E2DEBFCDBF00E00CBF13E0A0E06D
:102BB000B2E0E4E2F5E801E00BBF02C007900D923D
:102BC000AE34B107D9F720E1AEE4B3E001C01D9205
:102BD000AB32B207E1F715E1CEECD5E100E006C07B
:102BE00021970109802FFE010E9411C2CD3CD1071F
:102BF00080E00807A9F70E94619E0C9490C20C9493
:102C000000000F931F93CF93DF93582FFC0180E0B8
:102C100077E0919148E0282F30E0A92FB0E08901BA
:102C2000000F012F001F110B9170C92F90E0D92FB9
:102C3000880F0C171D0721F0C901880F991F8727DE
:102C4000B595A7959A2F415031F79E2F951B961752
:102C500000F3DF91CF911F910F910895AF92BF9232
:102C6000CF92DF92EF92FF920F931F93CF93DF9358
:102C70006C017B018B01040F151FEB015E01AE1887
:102C8000BF08C017D10759F06991D601ED91FC91A9
:102C90000190F081E02DC6011995892B79F7C501C6
:102CA000DF91CF911F910F91FF90EF90DF90CF9028
:102CB000BF90AF9008958150823108F05AC0E82F3C
:102CC000F0E08827E959F94E8F4F0C9411C287160E
:102CD0008B1679167F168316B9168E1694169816CB
:102CE0009E16A216A616AC16B016B916B416BA16CB
:102CF000BE16809180008F77809380000895809128
:102D000080008F7DF9CF80918000877FF5CF84B5DB
:102D10008F7784BD089584B58F7DFBCF8091B000FF
:102D20008F778093B00008958091B0008F7DF9CFA8
:102D3000809190008F77809390000895809190000B
:102D40008F7DF9CF80919000877FF5CF8091A00093
:102D50008F778093A00008958091A0008F7DF9CF98
:102D60008091A000877FF5CF809120018F7780939D
:102D700020010895809120018F7DF9CF809120015D
:102D8000877FF5CFCF93DF93282F30E0F901EB5BFE
:102D9000F04F8491F901E256FB4ED491F901E85AC3
:102DA000FB4EC491CC23A1F081110E945B16EC2F45
:102DB000F0E0EE0FFF1FEC5DFB4EA591B491EC919E
:102DC000ED2381E090E009F480E0DF91CF91089558
:102DD00080E090E0FACF1F93CF93DF93282F30E06D
:102DE000F901EB5BF04F8491F901E256FB4ED4916F
:102DF000F901E85AFB4EC491CC23A9F0162F81119A
:102E00000E945B16EC2FF0E0EE0FFF1FE25CFB4E22
:102E1000A591B4918FB7F894EC91111108C0D09599
:102E2000DE23DC938FBFDF91CF911F910895DE2BBE
:102E3000F8CFCF93DF9390E0FC01E256FB4E249154
:102E4000885A9B4EFC0184918823D1F090E0880F32
:102E5000991FFC01E55DF04FA591B491FC01E25C86
:102E6000FB4EC591D49161110EC09FB7F8948C911F
:102E7000E22FE0958E238C932881E223E8839FBF85
:102E8000DF91CF9108958FB7F894EC91E22BEC93FA
:102E90008FBFF6CF789484B5826084BD84B581609D
:102EA00084BD85B5826085BD85B5816085BDEEE652
:102EB000F0E0808181608083E1E8F0E01082808131
:102EC00082608083808181608083E0E8F0E080819F
:102ED00081608083E1EBF0E0808184608083E0EBBF
:102EE000F0E0808181608083E1E9F0E080818260B0
:102EF0008083808181608083E0E9F0E0808181606F
:102F00008083E1EAF0E0808182608083808181605B
:102F10008083E0EAF0E0808181608083E1E2F1E09B
:102F2000808182608083808181608083E0E2F1E043
:102F3000808181608083EAE7F0E080818460808323
:102F400080818260808380818160808380818068CD
:102F500080831092C10008953FB7F8948091590E74
:102F600090915A0EA0915B0EB0915C0E26B5A89B75
:102F700005C02F3F19F00196A11DB11D3FBFBA2F0B
:102F8000A92F982F8827BC01CD01620F711D811DCB
:102F9000911D42E0660F771F881F991F4A95D1F750
:102FA00008952091520E3091530E2817390771F46D
:102FB0009091510E8091500E981741F0E091510E72
:102FC000F0E0E05FF14F808190E008958FEF9FEF98
:102FD00008950895EF92FF920F931F93CF93DF937D
:102FE000DC015C96ED90FC905D97E114F10479F4BE
:102FF00081E090E013969C938E93129790E080E08E
:10300000DF91CF911F910F91FF90EF90089551960E
:10301000ED91FC91529750968C915097982F9095E6
:103020000FB75E962C915E97122F127021FD60955E
:10303000F8942081112319F1282B2083E70121978F
:10304000F1F728E0462F50E0308160FF1AC0382B9E
:103050003083E7012197F1F7BA0175956795215003
:1030600089F7112381F08081892380830FBF5C96CB
:103070008D919C910197F1F781E090E0C1CF2923D8
:10308000DCCF3923E5CF9081892BEFCF2091520EF1
:103090003091530E2817390771F48091500E20910A
:1030A000510E90E0805C9F4F821B910960E470E0BC
:1030B0000E94FDC1089590E080E008952091520E95
:1030C0003091530E28173907B9F49091510E809121
:1030D000500E981789F0E091510EF0E0E05FF14F4B
:1030E00080812091510E30E02F5F3F4F2F733327A7
:1030F0002093510E90E008958FEF9FEF0895CF93A6
:10310000DF93FC01828D938D892B41F1A091520EAA
:10311000B091530EAE17BF0709F1109751F05396B7
:10312000CD91DC915497988155968C918095892307
:103130008883868D8E7F868F1092500E1092510E4E
:10314000F093530EE093520EA389B4898C91958924
:10315000892B8C9381E0DF91CF91089580E0FBCFA4
:1031600090E080E00895BC012091D30D3091D40D02
:103170004091D30D5091D40D2417350731F481E0DF
:103180002617370709F080E008959A01F1CFEF92F2
:10319000FF920F931F93E0924309F092440900932A
:1031A0004509109346096093480970934909809333
:1031B0004A099FEFFF27621B730B840B30F4809545
:1031C00070956195790B890B99279093B50EA6E0C0
:1031D0006A9F0092A90E512DEE277A9F500DE11D96
:1031E0008A9FE00D5093AA0EE093AB0EAFE06A9F6A
:1031F0000092AD0E512DEE277A9F500DE11D8A9F52
:10320000E00D5093AE0EE093AF0EAAE06A9F0092DD
:10321000B10E512DEE277A9F500DE11D8A9FE00DD2
:103220005093B20EE093B30E1F910F91FF90EF9069
:1032300008958091760D9091770D891B8F7019F408
:1032400090E080E008959091730D992351F08330C0
:1032500030F48FEF890F19F08093730DF1CF109236
:10326000730D8091770D2DE5829FC00111248D583B
:103270009C4FFC01208120FDE3CF2091770D2F5F33
:103280002F702093740D3091770D2091750D3213AE
:1032900004C02091740D2093750D08958091760DD2
:1032A0009091770D891B80958F7019F40E940C6E98
:1032B000F5CF8091760D8F5F8F70E091760D9DE553
:1032C000E99FF0011124ED58FC4FDF011D929A9502
:1032D000E9F798E090834091990E50919A0E609191
:1032E0009B0E70919C0E458B568B678B708F409117
:1032F0009D0E50919E0E60919F0E7091A00E418F79
:10330000528F638F748F4091A10E5091A20E6091E5
:10331000A30E7091A40E458F568F678F70A34091B6
:10332000A50E5091A60E6091A70E7091A80E41A314
:1033300052A363A374A32091760D9091770D291366
:1033400003C094E69093730D8093760D80916F0087
:10335000826080936F0008959091760D8091770D33
:10336000981308C08091610990916209892B11F42A
:103370000C94865C0E940C6EEFCFEF92FF920F933D
:103380001F93CF93DF93CDB7DEB769970FB6F8944D
:10339000DEBF0FBECDBF08EF13E0F80184910F5FD1
:1033A0001F4F81110BC00FEE13E0F80184910F5FE6
:1033B0001F4F882331F00E94B260F7CF0E94B260A5
:1033C000ECCF609163037091640390E080E04AE089
:1033D0000E94097502EE13E0F80184910F5F1F4F00
:1033E000882319F00E94B260F7CF60916503709155
:1033F000660390E080E04AE00E94097507ED13E063
:10340000F80184910F5F1F4F882319F00E94B2606A
:10341000F7CF60916303709164038091650390918D
:103420006603681B790B8091A909815021E030E087
:10343000823010F030E020E0621B730B90E080E0FF
:103440004AE00E9409758AE00E94B2600FEC13E026
:10345000F80184910F5F1F4F882319F00E94B2601A
:10346000F7CF8091670390916803A0916903B091B1
:103470006A038E8B9F8BA88FB98FBE016F5F7F4FC2
:10348000CE0146960E94CC5F02EC13E0F8018491D5
:103490000F5F1F4F81110CC0CE0101967C018C0182
:1034A000F80181918F01882331F00E94B260F8CF3A
:1034B0000E94B260EBCF80916B0390916C03A0915E
:1034C0006D03B0916E038E8B9F8BA88FB98FBE0159
:1034D0006F5F7F4FCE0146960E94CC5F02EB13E0F8
:1034E000F80184910F5F1F4F882319F00E94B2608A
:1034F000F7CFF70181917F01882319F00E94B26014
:10350000F8CF8AE00E94B2600AEA13E0F8018491E1
:103510000F5F1F4F81110BC00AE913E0F80184917E
:103520000F5F1F4F882331F00E94B260F7CF0E94D7
:10353000B260ECCF20E030E04AE754E460916F03E2
:103540007091700380917103909172030E94D1BFBA
:1035500042E00E9474798DE60E94B2608AE00E9487
:10356000B26069960FB6F894DEBF0FBECDBFDF9193
:10357000CF911F910F91FF90EF900895AF92BF925E
:10358000CF92DF92EF92FF920F931F93E9E2FCE05C
:10359000A084B184C284D384E480F580068117813D
:1035A00020813181428153810E944F8F1F910F9161
:1035B000FF90EF90DF90CF90BF90AF9008950F9362
:1035C0001F93CF93DF93182F092FC3EDD6E1FE0190
:1035D0008491219681110AC0C12FD02FFE018491C0
:1035E0002196882331F00E94B260F8CF0E94B26029
:1035F000EECF6091250C7091260C8091270C909154
:10360000280C0E94B1758AE00E94B2600E94CD75BC
:103610001092240C1092230CDF91CF911F910F91E7
:103620000895FF920F931F93CF93DF938091220C05
:10363000082F0270182F1470982F9170F92E80FDAA
:1036400011C0C6E7D6E1FE0184912196811115C013
:10365000C0E7D6E1FE0184912196882389F00E947B
:10366000B260F8CF002369F380E0112351F3DF91BA
:10367000CF911F910F91FF9008950E94B260E3CF08
:10368000F1100AC0CEE6D6E1FE018491219688238E
:1036900019F00E94B260F8CF01110AC0CCE6D6E161
:1036A000FE0184912196882319F00E94B260F8CF20
:1036B00011110AC0CAE6D6E1FE0184912196882341
:1036C00019F00E94B260F8CFC2E6D6E1FE01849103
:1036D0002196882319F00E94B260F8CF81E0C7CF0D
:1036E000FC01DB018C9120813181382798E0A90110
:1036F000220F331F57FD05C09150C9F73183208336
:103700000895B1E22B27B0E13B27F6CFDC015596B7
:103710002C915597222309F488C05396ED91FC9182
:10372000138E128E118E108E178A168A8FE190E0FA
:10373000958F848F848596EF980F943048F02EEC07
:10374000280F243028F022EC280F283008F050C031
:1037500021E030E0378B268B2DE130E0318F208F58
:103760002DE030E0338F228F943050F02EEC280F74
:10377000243030F022EC280FB0E0A0E0283010F424
:10378000A8E6B0E02C91943020F032EC380F3830BD
:1037900090F131E0232B943048F09EEC980F943058
:1037A00028F08E53B0E0A0E0883010F4A8E6B0E036
:1037B0002C93848596EF980F9430F8F02EEC280F18
:1037C0002430D8F022EC280F2830D0F030E020E070
:1037D000348B238B9430B8F48650990B91E001C060
:1037E000990F8A95EAF7958B848D958D0197F1F75E
:1037F000CF010C947F1834E0CDCF2BE630E0E8CF3A
:103800002DE630E0E5CF98E0823369F394E083332E
:1038100051F392E0843339F392EC980F983018F416
:103820008E53990BDBCF91E0DECF08951F93CF939A
:10383000DF93182FEB0161E00E941917209739F4EC
:1038400060E0812FDF91CF911F910C94EB16CF3F59
:10385000D10511F461E0F5CFE12FF0E0EB5BF04F23
:10386000E491E150E23108F0B3C0F0E08827E45C75
:10387000F34E8F4F0C9411C24E1C561C5B1C651CE2
:103880006F1CE81C791C811C891C931C9D1CA71CA7
:10389000B61CC01CE81CCA1CD41CDE1C84B5806885
:1038A00084BDC7BDDF91CF911F91089584B580621B
:1038B00084BDC8BDF7CF8091800080688093800070
:1038C000D0938900C0938800EDCF80918000806202
:1038D00080938000D0938B00C0938A00E3CF8091C7
:1038E0008000886080938000D0938D00C0938C000E
:1038F000D9CF8091B00080688093B000C093B300AE
:10390000D1CF8091B00080628093B000C093B400AA
:10391000C9CF80919000806880939000D0939900E7
:10392000C0939800BFCF80919000806280939000F8
:10393000D0939B00C0939A00B5CF8091900088608F
:1039400080939000D0939D00C0939C00ABCF80915A
:10395000A00080688093A0008091A0008F7B80935E
:10396000A000D093A900C093A8009CCF8091A00094
:1039700080628093A000D093AB00C093AA0092CF46
:103980008091A00088608093A000D093AD00C09388
:10399000AC0088CF80912001806880932001D09373
:1039A0002901C09328017ECF8091200180628093FD
:1039B0002001D0932B01C0932A0174CF8091200164
:1039C000886080932001D0932D01C0932C016ACF91
:1039D000C038D1050CF03ECF33CF8F929F92AF927B
:1039E000BF92CF92DF92EF92FF926B017C010E9417
:1039F000AC174B015C01C114D104E104F104B9F02E
:103A00000E94AC17681979098A099B09683E7340BE
:103A10008105910580F321E0C21AD108E108F1087F
:103A200088EE880E83E0981EA11CB11CE4CFFF90A5
:103A3000EF90DF90CF90BF90AF909F908F900895C0
:103A4000CF92DF92EF92FF920F931F93CF93DF936A
:103A500000D000D01F921F92CDB7DEB77C018E013F
:103A60000F5F1F4F88E0D8011D928A95E9F785E026
:103A700089836B835C834D833E832F8367E0C8011A
:103A80000E9401168887F70185899E01275F3F4FB5
:103A90006901882379F1D70153968D919C91F801A2
:103AA00061918F01DC01ED91FC910190F081E02D9D
:103AB0001995F70120813181820F931F91838083B3
:103AC000C016D10641F7D70116966D917C9190E012
:103AD00080E00E94ED1C28960FB6F894DEBF0FBE62
:103AE000CDBFDF91CF911F910F91FF90EF90DF90AD
:103AF000CF900895D70151968D919C91F8016191D5
:103B00008F01DC01ED91FC910190F081E02D199580
:103B1000F70120813181820F931F918380830C15DF
:103B20001D0541F7D0CF2F923F924F925F926F9237
:103B30007F928F929F92AF92BF92CF92DF92EF923D
:103B4000FF920F931F93CF93DF93CDB7DEB72C97E0
:103B50000FB6F894DEBF0FBECDBF7C011B018EEA0D
:103B600097E4A1EEBDE3F70182839383A483B58339
:103B700090E080E00E9453BA25ED34E045E352E442
:103B80000E94B4BA20E030E04AE754E40E94D1BF7A
:103B90004B015C0128EB3EE145E05EE30E94B4BAD4
:103BA00026E636E646EA5EE30E94D1BF20E030E03A
:103BB00040E85FE30E94D6BE0E944AC0462EFFE066
:103BC000F61708F489C0F701FE9620813181428101
:103BD0005381426020833183428353836CEEC7015B
:103BE0000E94201D2AE037ED43EA5CE3D7011296DC
:103BF0006D917D918D919C9115970E94D7BEA501E5
:103C000094010E94B4BA2CEE31E548E35EE30E94D1
:103C1000D1BF20E030E040E85FE30E94D6BE0E94C2
:103C20004AC0462EF70126A537A540A951A9307EE6
:103C3000842D90E0B0E0A0E0BA2FA92F982F88271C
:103C400088279F71AA27BB27282B392B4A2B5B2B50
:103C500026A737A740AB51AB60E9C7010E94201DE2
:103C6000642D70E090E080E00E9455BA20E030E0E2
:103C700040E05FE30E94B4BA0E944AC06F71F7014E
:103C800026A537A540A951A9207E262B26A737A710
:103C900040AB51AB60E9C7010E94201DF701E55B15
:103CA000FF4F318220822C960FB6F894DEBF0FBEF4
:103CB000CDBFDF91CF911F910F91FF90EF90DF90DB
:103CC000CF90BF90AF909F908F907F906F905F90BC
:103CD0004F903F902F900895F701E65BFF4F808152
:103CE00081114BC119861A861B861C8685E089873F
:103CF0008CE68B8763E0CE0109960E9401168C87C3
:103D0000F7018589882309F475C0838994890E9405
:103D10007F18D70116966D907C90179753968D90CB
:103D20009C90D401ED91FC910084F185E02DC401BB
:103D30001995181619064CF4D401ED91FC910284E2
:103D4000F385E02DC4011995ECCFFE0139965F0192
:103D50006E01FDE0CF0ED11CD5016D915D01D40146
:103D6000ED91FC910190F081E02DC4011995CA14E8
:103D7000DB0491F704E010E0D401ED91FC910284A2
:103D8000F385E02DC401199501501109A9F7B3017C
:103D900090E080E00E94ED1C10E0712CA12CB12C71
:103DA000C12CD12C512C612CD401ED91FC910084BB
:103DB000F185E02DC4011995181619060CF086C07E
:103DC000D401ED91FC910284F385E02DC401199595
:103DD000E82F212F372DA501B601852D962D08E05E
:103DE0000E9419C21E2F122B732E5A016B01582EDE
:103DF000692EDACF6680778081889288D401ED9130
:103E0000FC910084F185E02DC4011995181619065E
:103E10004CF4D401ED91FC910284F385E02DC401B2
:103E20001995ECCFFE0139965F016E01FDE0CF0ED2
:103E3000D11CD5016D915D01D401ED91FC910190F2
:103E4000F081E02DC4011995CA14DB0491F704E058
:103E500010E0D401ED91FC910284F385E02DC401C2
:103E6000199501501109A9F7B30190E080E00E9473
:103E7000ED1C10E0712CA12CB12CC12CD12C512C9B
:103E8000612CD401ED91FC910084F185E02DC401F9
:103E9000199518161906D4F4D401ED91FC910284F9
:103EA000F385E02DC4011995E82F212F372DA501A9
:103EB000B601852D962D08E00E9419C21E2F122BE7
:103EC000732E5A016B01582E692EDBCF212F372D0F
:103ED000A501B601852D962D08E30E9434C22983E1
:103EE000212F372DA501B601852D962D00E30E94C7
:103EF00034C22A83212F372DA501B601852D962D99
:103F000008E20E9434C22B83212F372DA501B60170
:103F1000852D962D00E20E9434C22C83212F372D4F
:103F2000A501B601852D962D08E10E9434C22D838E
:103F3000212F372DA501B601852D962D00E10E9478
:103F400034C22E83212F372DA501B601852D962D44
:103F500008E00E9434C2022FB32E6A012F83188713
:103F600067E0CE0101960E940116181306C0F70102
:103F7000FE960083B182C282D382F701FE968081D1
:103F80009181A281B381A1FF4DCE9C01AD014D7FF6
:103F900020833183428353836CEEC7010E94201D2E
:103FA00041CE0F931F93CF93DF93EC012E893F896E
:103FB000488D598D20642E8B3F8B488F598F60E838
:103FC0000E94201D2E893F89488D598D20682E8B97
:103FD0003F8B488F598F60E8CE010E94201D2E89AB
:103FE0003F89488D598D2E7F2E8B3F8B488F598F5F
:103FF00060E8CE010E94201D60E273E0CE010E94C5
:10400000931D8E01025C1F4FF80120813181428196
:104010005381507F546020833183428353836CEEFD
:10402000CE010E94201DF8012081318142815381FF
:104030003F774E7F306820833183428353836CEE19
:10404000CE010E94201DF8012081318142815381DF
:10405000207F256020833183428353836CEECE0121
:104060000E94201DF80120813181428153815061DD
:1040700020833183428353836CEECE010E94201D46
:1040800080E890E0A0E0B0E08AAB9BABACABBDAB0E
:1040900020E830E040E050E061E9CE010E94201DC0
:1040A000F80120813181428153812F782062208361
:1040B0003183428353836CEECE010E94201DF801B0
:1040C00020813181428153812F77387F206832608F
:1040D00020833183428353836CEECE010E94201DE6
:1040E0000C5F1F4FF80120813181428153815F7045
:1040F000506C208331834283538360EFCE010E9452
:10410000201DF8012081318142815381507F586008
:10411000208331834283538360EFCE010E94201DB0
:10412000F8012081318142815381486020833183AD
:104130004283538360EFCE010E94201DF80120814D
:104140003181428153814460208331834283538390
:1041500060EFCE010E94201DF80120813181428153
:1041600053814C7F4160208331834283538360EFCE
:10417000CE010E94201DF8012081318142815381AE
:1041800033273E60208331834283538360EFCE0127
:104190000E94201DF8012081318142815381222714
:1041A0002462208331834283538360EFCE010E94D7
:1041B000201D2E893F89488D598D2B7F2E8B3F8B5B
:1041C000488F598F60E8CE010E94201D87E090E063
:1041D000A0E0B0E08A8F9B8FAC8FBD8F27E030E0EE
:1041E00040E050E061E8CE010E94201D68EC70E0E4
:1041F00080E090E0DF91CF911F910F910C94ED1C26
:104200002FB7F8946091550E7091560E8091570E0D
:104210009091580E2FBF08956091390C70913A0C0F
:1042200067507109072E000C880B990B0E9455BA34
:104230009B01AC0160913B0C70913C0C80913D0C5A
:1042400090913E0C0E944EBA87FD0C940021089577
:104250001F920F920FB60F9211242F933F938F93BB
:104260009F93AF93BF938091550E9091560EA0915E
:10427000570EB091580E3091540E23E0230F2D3776
:1042800058F50196A11DB11D2093540E8093550E33
:104290009093560EA093570EB093580E8091590EDE
:1042A00090915A0EA0915B0EB0915C0E0196A11DEB
:1042B000B11D8093590E90935A0EA0935B0EB0934C
:1042C0005C0EBF91AF919F918F913F912F910F9075
:1042D0000FBE0F901F90189526E8230F0296A11D80
:1042E000B11DD2CF1F920F920FB60F9211240BB6B1
:1042F0000F922F933F934F935F936F937F938F937F
:104300009F93AF93BF93EF93FF93E091520EF09181
:10431000530E309749F0A685B7858585968D91FF18
:1043200016C09C918923B1F4FF91EF91BF91AF9199
:104330009F918F917F916F915F914F913F912F91BD
:104340000F900BBE0F900FBE0F901F9018959C9171
:10435000892351F7A389B4899C9185898095892304
:104360008C93868997890197F1F7608D718DA68569
:10437000B785558538E020E0CB010197F1F7822F12
:1043800090E095958795282F4C91452309F020685A
:10439000315091F7868D81FD20958091500E90E0EF
:1043A00001968F7399273091510E381799F0A0918B
:1043B000500EB0E0A05FB14F2C938093500E828DD1
:1043C000938D0197F1F7A389B4898C919589892BF5
:1043D0008C93AACF868D8160868FF1CFCF93DF93A8
:1043E000E82FEE0FFF0BEE52F14FC591D491FE0175
:1043F00084912196882319F00E94B260F8CFDF9152
:10440000CF910895CF93DF930E94EE21C4E1DFE0C6
:10441000FE0184912196882319F00E94B260F8CFA2
:10442000DF91CF9108951F93CF93DF93162F0E94B2
:10443000EE21C3EFDEE0FE0184912196882319F07E
:104440000E94B260F8CFCDEEDEE0112311F0C8EE8D
:10445000DEE0FE0184912196882319F00E94B2606B
:10446000F8CF8AE0DF91CF911F910C94B2608F92C8
:104470009F92AF92BF92CF92DF92EF92FF920F93F3
:104480001F93CF93DF93BCE1A0E06A2F70E0AB01F4
:104490004B0F511D559547954A1711F0B41319C08C
:1044A000EEE5FEE065917491072E000C880B990BE8
:1044B0000E9455BADF91CF911F910F91FF90EF901D
:1044C000DF90CF90BF90AF909F908F900895B42FC2
:1044D000DECF9A0121503109220F331F220F331FE3
:1044E000F901E051F24FE590F490F901EC50F24FF0
:1044F000C591D4918E159F0554F3A42FC817D907E1
:104500000CF4C3CFF901EE50F24F05911491F9016B
:10451000EA50F24FC590D490BC016E197F09072E66
:10452000000C880B990B0E9455BA4B015C01B60137
:10453000601B710B072E000C880B990B0E9455BA5B
:104540009B01AC01C501B4010E94B4BA4B015C01EE
:10455000BE016E197F09072E000C880B990B0E9473
:1045600055BA9B01AC01C501B4010E94D1BF6B01DA
:104570007C01B801110F880B990B0E9455BA9B0161
:10458000AC01C701B6010E94D7BE94CF0F930FB7FD
:104590000F9300916E000B7F00936E0078940F9341
:1045A0000BB70F930CB70F921F922F933F934F931C
:1045B0005F936F937F938F939F93AF93BF93EF938B
:1045C000FF9311240E940037FF91EF91BF91AF91AB
:1045D0009F918F917F916F915F914F913F912F911B
:1045E0001F900F900CBF0F910BBF0F910460F894B8
:1045F00000936E000F910FBF0F9118956091AF0956
:104600007091B00966507109072E000C880B990B48
:104610000E9455BA2091630930916409409165095F
:10462000509166090E9437C1181614F40C940021A9
:1046300008958F929F92AF92BF92CF92DF92EF92A6
:10464000FF920F931F93CF93DF93BCE1A0E06A2FFB
:1046500070E0AB014B0F511D55954795A41711F014
:10466000B41319C0EEE5FEE065917491072E000CBD
:10467000880B990B0E9455BADF91CF911F910F9132
:10468000FF90EF90DF90CF90BF90AF909F908F9072
:104690000895B42FDECF9A0121503109220F331F24
:1046A000220F331FF901E051F24FE590F490F90128
:1046B000EC50F24FC591D4918E159F0554F3A42F61
:1046C000C817D9070CF4C3CFF901EE50F24F05918A
:1046D0001491F901EA50F24FC590D490BC016E19C3
:1046E0007F09072E000C880B990B0E9455BA4B01CD
:1046F0005C01B601601B710B072E000C880B990B37
:104700000E9455BA9B01AC01C501B4010E94B4BA24
:104710004B015C01BE016E197F09072E000C880B4E
:10472000990B0E9455BA9B01AC01C501B4010E94CE
:10473000D1BF6B017C01B801110F880B990B0E944E
:1047400055BA9B01AC01C701B6010E94D7BE94CFF8
:104750008091FB0D9091FC0D0E94372260933B0CE1
:1047600070933C0C80933D0C90933E0C8091F90D1E
:104770009091FA0D0E941923609363097093640964
:104780008093650990936609A8951092FD0D089590
:104790000F931F938091A909813019F50E94002180
:1047A0000091D90D1091DA0D2091DB0D3091DC0DC7
:1047B000601B710B820B930B28EE33E040E050E05E
:1047C0000E9473BE6091D50D7091D60D8091D70D6A
:1047D0009091D80D620F731F841F951F1F910F9129
:1047E000089560915D0E70915E0E80915F0E9091C4
:1047F000600ED6CF1092A9091092D90D1092DA0D41
:104800001092DB0D1092DC0D10925D0E10925E0E78
:1048100010925F0E1092600E1092D50D1092D60D70
:104820001092D70D1092D80D089586E29DE00E9457
:10483000D11F89ED9CE00E94D11F8CE89CE00E9472
:10484000D11F8FE39CE00C94D11F0F931F93CF9344
:10485000DF93C82F80916F00D82FD27081FF05C0E1
:1048600080916F008D7F80936F0060918D097091B2
:104870008E0980918F099091900900919109109172
:1048800092092091930930919409C13039F5601B48
:10489000710B820B930B0E9455BA20E030E040E090
:1048A0005FE30E94B4BA0E9443C024E0C29FF001BB
:1048B0001124E25BF64F608371838283938381E0EE
:1048C00080934D09DD2329F080916F0082608093F1
:1048D0006F00DF91CF911F910F910895600F711FAD
:1048E000821F931FD8CF90916F00292F227091FFC4
:1048F00005C090916F009D7F90936F0094E0899F19
:10490000F0011124E357F64F608171818281938118
:10491000222329F020916F00226020936F000895D8
:104920000F930FB70F9300916E000F930B7F0093BF
:104930006E0000916F000D7F00936F000F930BB717
:104940000F930CB70F921F922F933F934F935F9348
:104950006F937F938F939F93AF93BF93EF93FF9347
:1049600011240E940625FF91EF91BF91AF919F9175
:104970008F917F916F915F914F913F912F911F90F8
:104980000F900CBF0F910BBF0F910260F894009332
:104990006F000F9100936E000F910FBF0F9118954C
:1049A0008091470980FF21C089988FEF80938D0DFA
:1049B0008091470981FF1CC08F988FEF80938E0DE7
:1049C0008091470982FF17C080910B01827080930C
:1049D00009018FEF80938F0D8091470983FF13C0EA
:1049E000169A8FEF8093900D0895899A81E0DECF1B
:1049F0008F9A81E0E3CF80910B0180958270809344
:104A0000090181E0E7CF169881E0ECCF2F923F9229
:104A10004F925F926F927F928F929F92AF92BF92CE
:104A2000CF92DF92EF92FF920F931F93CF93DF937A
:104A3000CDB7DEB761970FB6F894DEBF0FBECDBF1E
:104A4000F8948FEF9FEF90938900809388000AE09D
:104A50000983912C812C4CE1A42E4CE0B42E789447
:104A60008091CF0D9091D00DA091D10DB091D20D2C
:104A7000892B8A2B8B2B09F0CEC180914D0988237D
:104A8000D1F08091D30D9091D40D10924D09892BC6
:104A900091F010924C091092D40D1092D30D909178
:104AA000760D8091770D981731F08091770D8F5F9B
:104AB0008F708093770D8091D30D9091D40D892BB9
:104AC00009F4A9C14091CB0D5091CC0D6091CD0D51
:104AD0007091CE0D8091C70D9091C80DA091C90D18
:104AE000B091CA0D0091BE0D10E030E020E0841BB3
:104AF000950BA60BB70B081719072A073B0710F4ED
:104B0000D901C801E82F840F951FA61FB71F8093F6
:104B1000CB0D9093CC0DA093CD0DB093CE0D809185
:104B20008400909185004C964091A50D5091A60D62
:104B30006091A70D7091A80D0091950D1091960DA3
:104B40002091970D3091980D400F511F621F731FD8
:104B50004093A50D5093A60D6093A70D7093A80DDB
:104B600077FD1CC0889A00918D0910918E092091C3
:104B70008F093091900940918D0D042E000C550B3A
:104B8000660B770B400F511F621F731F40938D09F7
:104B900050938E0960938F09709390094091A90DED
:104BA0005091AA0D6091AB0D7091AC0D0091990DD3
:104BB00010919A0D20919B0D30919C0D400F511F2B
:104BC000621F731F4093A90D5093AA0D6093AB0D04
:104BD0007093AC0D77FD1CC08E9A009191091091D5
:104BE0009209209193093091940940918E0D042EE1
:104BF000000C550B660B770B400F511F621F731F84
:104C0000409391095093920960939309709394098A
:104C10004091AD0D5091AE0D6091AF0D7091B00D02
:104C200000919D0D10919E0D20919F0D3091A00D32
:104C3000400F511F621F731F4093AD0D5093AE0D77
:104C40006093AF0D7093B00D77FD21C020910B01E3
:104C500020952870209309010091950910919609DB
:104C6000209197093091980940918F0D042E000CE6
:104C7000550B660B770B400F511F621F731F40933C
:104C800095095093960960939709709398094091FC
:104C9000B10D5091B20D6091B30D7091B40D0091B2
:104CA000A10D1091A20D2091A30D3091A40D400FE4
:104CB000511F621F731F4093B10D5093B20D60934B
:104CC000B30D7093B40D77FD1CC0149A009199092F
:104CD00010919A0920919B0930919C094091900D67
:104CE000042E000C550B660B770B400F511F621FF3
:104CF000731F4093990950939A0960939B0970938D
:104D00009C094091A50D5091A60D6091A70D709141
:104D1000A80D77FD15C00091910D1091920D209175
:104D2000930D3091940D401B510B620B730B40930C
:104D3000A50D5093A60D6093A70D7093A80D8898AC
:104D40004091A90D5091AA0D6091AB0D7091AC0DE1
:104D500077FD15C00091910D1091920D2091930D4A
:104D60003091940D401B510B620B730B4093A90DB6
:104D70005093AA0D6093AB0D7093AC0D8E9840913B
:104D8000AD0D5091AE0D6091AF0D7091B00D77FDEE
:104D900019C00091910D1091920D2091930D3091B9
:104DA000940D401B510B620B730B4093AD0D509350
:104DB000AE0D6093AF0D7093B00D20910B01287074
:104DC000209309014091B10D5091B20D6091B30D46
:104DD0007091B40D77FD15C00091910D1091920D59
:104DE0002091930D3091940D401B510B620B730B6E
:104DF0004093B10D5093B20D6093B30D7093B40D09
:104E00001498E15041F020918400309185002817DA
:104E10003907C8F389CE8091CF0D9091D00DA09124
:104E2000D10DB091D20D892B8A2B8B2B11F00C94C4
:104E3000162E8091D30D9091D40D998B888B892B50
:104E400011F40C948D2E8091CB0D9091CC0DA091EE
:104E5000CD0DB091CE0D4091C70D5091C80D609110
:104E6000C90D7091CA0D84179507A607B70708F4F6
:104E70007BC010924C091092D40D1092D30D9091DA
:104E8000760D8091770D981711F40C948D2E8091EA
:104E9000770D8F5F8F708093770D30EDC32E37E0E5
:104EA000D32EE12CF12C8091D30D9091D40D892B30
:104EB00011F00C940E2E0E9419199093D40D80932A
:104EC000D30D892B11F40C940E2EE091D30DF0919B
:104ED000D40D808183FF3AC585899689A789B08DD5
:104EE000418D528D638D748D8C019D01040F151FB2
:104EF000261F371F00938D0910938E0920938F0969
:104F000030939009841B950BA60BB70B80939109E6
:104F100090939209A0939309B0939409858D968DEF
:104F2000A78DB0A18093950990939609A0939709B6
:104F3000B093980981A192A1A3A1B4A180939909EA
:104F400090939A09A0939B09B0939C099091760D38
:104F50008091770D981709F4AECF8091770D8F5F10
:104F60008F708093770DA7CF4091C30D5091C40DE2
:104F70006091C50D7091C60D481759076A077B07E8
:104F800008F410C24091BF0D5091C00D6091C10D49
:104F90007091C20DE889F98986A997A9A0ADB1AD34
:104FA000481759076A077B0708F0D0C1411551051A
:104FB0006105710509F065C04090480950904909A4
:104FC00060904A0970904B0980E09CE0A1E0FC01F0
:104FD0000591159125913491041515052605370580
:104FE00048F47694679457944794AA0F0496A816A9
:104FF000B90669F7A093BE0DB0E24B1651046104E7
:10500000710428F480E2482E512C612C712CE0E2CE
:105010004E1A5108610871084114F8E05F066104F6
:10502000710408F49CC104E0509EC001112480501A
:10503000984FFC01329625913491B42DAA27B39F45
:10504000F001B29FE10DFA1F0694EA1FFA1F112426
:105050002F01712C612CFC01C590D490F12CE12C16
:10506000C418D508E608F7084C0D5D1D6E1D7F1DA0
:105070004093BF0D5093C00D6093C10D7093C20D4E
:1050800012CF10E0942F452E862FBC81AD81FE817A
:10509000EF8138852985FA800B81E0914309E99FEA
:1050A000A12DFF2730914409399FA00DF11D1090CB
:1050B0004509199EF00DE49DA00DF11D349DF00DE4
:1050C000E89FF00D0A2FBF2F0A9FE12D33272227DB
:1050D0000F9FE00D311D211FBA9FE00D311D211FD3
:1050E000BF9F300D211D032FB22F0A9FF12C3327B4
:1050F00022270F9FF00C311D211FBA9FF00C311D8C
:10510000211FBF9F300D211D032FB22FEE2790913D
:1051100048094090490980914A090090B50E012A3A
:1051200009F484C03091B10E309FE119910B410A0E
:10513000810B2091B20E209FE0199109410A810B49
:10514000F090B30EF09E90194108810B3B9FE0193F
:105150009109410A810B2B9F90194108810BFB9EFD
:10516000401881090A9FF12C332722270F9FF00C4A
:10517000311D211FBA9FF00C311D211FBF9F300D23
:10518000211D032FB22F3091AD0E309FE10D911FE5
:10519000411E811F2091AE0E209FE00D911D411EEA
:1051A000811FF090AF0EF09E900D411C811F3B9F20
:1051B000E00D911D411E811F2B9F900D411C811FF1
:1051C000FB9E400C811D0A9FF12C332722270F9F45
:1051D000F00C311D211FBA9FF00C311D211FBF9F04
:1051E000300D211D032FB22F3091A90E309FE119F0
:1051F000910B410A810B2091AA0E209FE019910981
:10520000410A810BF090AB0EF09E90194108810B82
:105210003B9FE0199109410A810B2B9F901941088E
:10522000810BFB9E401881090C9498293091B10E96
:10523000309FE10D911F411E811F2091B20E209FD2
:10524000E00D911D411E811FF090B30EF09E900D58
:10525000411C811F3B9FE00D911D411E811F2B9F13
:10526000900D411C811FFB9E400C811D0A9FF12C5B
:10527000332722270F9FF00C311D211FBA9FF00CFE
:10528000311D211FBF9F300D211D032FB22F3091E3
:10529000AD0E309FE119910B410A810B2091AE0EAA
:1052A000209FE0199109410A810BF090AF0EF09E0A
:1052B00090194108810B3B9FE0199109410A810B2C
:1052C0002B9F90194108810BFB9E401881090A9F72
:1052D000F12C332722270F9FF00C311D211FBA9F7D
:1052E000F00C311D211FBF9F300D211D032FB22F48
:1052F0003091A90E309FE10D911F411E811F209119
:10530000AA0E209FE00D911D411E811FF090AB0E53
:10531000F09E900D411C811F3B9FE00D911D411E91
:10532000811F2B9F900D411C811FFB9E400C811DF6
:1053300011240B83FA82BC83AD83FE83EF8338870D
:105340002987542C492E712C682E3ECEA889B98904
:10535000D2964D905D906D907C90D59735CED301CF
:10536000C201B695A795979587958C7F9C01205093
:105370003C4FF90185919491F9013296A591B49130
:10538000E42DE770EA9F9001EB9F300D112403E0BC
:10539000369527950A95E1F7821B930B6C01F12C4A
:1053A000E12C62CE4091BA0D5091BB0D6091BC0DC5
:1053B0007091BD0D481759076A077B0708F032C284
:1053C0004090B50D5090B60D6090B70D7090B80D2F
:1053D0008091B90DE889F98981117DC0EE5BFF4F9D
:1053E000E080F18002811381E889F989E15BFF4F58
:1053F0002081318142815381A889B989D2966D91EA
:105400007D918D919C91D5970E94C718B1E0B09382
:10541000B90DE889F989C2A8D3A8E4A8F5A880E065
:105420009CE021E0FC0145915591659174914C15EA
:105430005D056E057F0548F4F694E794D794C7940C
:10544000220F0496A816B90669F72093BE0DB0E2A4
:10545000CB16D104E104F10428F4F0E2CF2ED12CD4
:10546000E12CF12CE0E2CE1AD108E108F108C114D8
:10547000F8E0DF06E104F10408F4B1C104E0D09ED5
:10548000C00111248050984FFC013296259134912F
:105490007C2D6627739FA001729F410D561F0694B5
:1054A000461F561F112470E060E0FC01C590D490A7
:1054B000F12CE12CC41AD50AE60AF70A4C0C5D1C43
:1054C0006E1C7F1C4092B50D5092B60D6092B70DC8
:1054D0007092B80DE8CC82AD93ADA4ADB5AD4816D1
:1054E00059066A067B0608F070C141145104610434
:1054F000710449F4C0904809D0904909E0904A09E4
:10550000F0904B098CCF70E06A85942DE52C862DA8
:105510005B854C85ED853E852F8520914309299F2C
:10552000E12D332720904409299EE00D311D109074
:105530004509199E300D2E9DE00D311D2E9C300D1C
:10554000289F300D5E2F432F5E9F212D2224332470
:10555000539F200D211C371E4E9F200D211C371EEE
:10556000439F200C311C522D432D5E9F612D222420
:105570003324539F600D211C371E4E9F600D211C4C
:10558000371E439F200C311C522D432D2227909112
:105590004809E090490980914A090090B50E072A10
:1055A00009F484C02090B10E259E2119970BE70ABB
:1055B000870B3090B20E359E20199109E70A870BB0
:1055C0006091B30E659F9019E108870B249E201906
:1055D0009109E70A870B349E9019E108870B649FB5
:1055E000E01881095E9F612D22243324539F600DB2
:1055F000211C371E4E9F600D211C371E439F200C1F
:10560000311C522D432D2090AD0E259E210D971F4C
:10561000E71E871F3090AE0E359E200D911DE71EB0
:10562000871F6091AF0E659F900DE11C871F249E20
:10563000200D911DE71E871F349E900DE11C871FD2
:10564000649FE00C811D5E9F612D22243324539FB3
:10565000600D211C371E4E9F600D211C371E439F7D
:10566000200C311C522D432D2090A90E259E21196E
:10567000970BE70A870B3090AA0E359E20199109E7
:10568000E70A870B6091AB0E659F9019E108870BC5
:10569000249E20199109E70A870B349E9019E1088E
:1056A000870B649FE01881090C94D82B2090B10ED1
:1056B000259E210D971FE71E871F3090B20E359E45
:1056C000200D911DE71E871F6091B30E659F900D01
:1056D000E11C871F249E200D911DE71E871F349E0D
:1056E000900DE11C871F649FE00C811D5E9F612D62
:1056F00022243324539F600D211C371E4E9F600DC2
:10570000211C371E439F200C311C522D432D20900D
:10571000AD0E259E2119970BE70A870B3090AE0E30
:10572000359E20199109E70A870B6091AF0E659F9E
:105730009019E108870B249E20199109E70A870B2D
:10574000349E9019E108870B649FE01881095E9FE1
:10575000612D22243324539F600D211C371E4E9F40
:10576000600D211C371E439F200C311C522D432DF0
:105770002090A90E259E210D971FE71E871F3090B0
:10578000AA0E359E200D911DE71E871F6091AB0E5E
:10579000659F900DE11C871F249E200D911DE71E23
:1057A000871F349E900DE11C871F649FE00C811DB4
:1057B00011246A875B874C87ED873E872F87FE2CF5
:1057C000E92E6701F12CE82E2ACE88899989815B20
:1057D0009F4FDC01CD90DD90ED90FC9020CED70165
:1057E000C601B695A795979587958C7F9C0120500B
:1057F0003C4FF90185919491F9013296459154916C
:10580000AC2DA770A49F9001A59F300D1124E3E05B
:1058100036952795EA95E1F7821B930B6C01F12CE5
:10582000E12C4CCE80910D0290910E02A0910F02BE
:10583000B0911002B7FF5FC0E889F989E95BFF4FBB
:10584000408051806280738080E09CE021E0FC0118
:1058500045915591659174914415550566057705F7
:1058600048F47694679457944794220F0496A816A8
:10587000B90669F72093BE0DF0E24F16510461049A
:10588000710428F450E2452E512C612C712C00E259
:10589000401A510861087108411428E05206610459
:1058A000710408F431C074E0579EC0011124805087
:1058B000984FFC01329625913491A42D6627A39F21
:1058C000A001A29F410D561F0694461F561F11248A
:1058D00070E060E0FC0185919491B0E0A0E0841B51
:1058E000950BA60BB70B80930D0290930E02A0931D
:1058F0000F02B0931002C0900D02D0900E02E09003
:105900000F02F0901002CFCAD301C201B695A7953D
:10591000979587958C7F80509C4FFC012591349101
:10592000FC01329645915491B42DB770B49FC001DB
:10593000B59F900D112443E0969587954A95E1F720
:10594000281B390BC901B0E0A0E0CDCF45895689AD
:105950006789708D418C528C638C748CDF01AA5BDB
:10596000BF4FFC90F88A81E0441555056605770520
:1059700009F0ACC180E0411551056105710559F090
:105980009F2D969591708F2D8095817089272F2D51
:10599000217092139BC1058D168D278D30A10115A5
:1059A00011052105310509F0846080934C0910929E
:1059B000B50D1092B60D1092B70D1092B80D109251
:1059C000BF0D1092C00D1092C10D1092C20D85A195
:1059D00096A1A7A1B0A58093C70D9093C80DA093E1
:1059E000C90DB093CA0DCC24DD247601C81AD90A9A
:1059F000EA0AFB0AC092B10DD092B20DE092B30D4B
:105A0000F092B40DC092AD0DD092AE0DE092AF0DFC
:105A1000F092B00DC092A90DD092AA0DE092AB0DFC
:105A2000F092AC0DC092A50DD092A60DE092A70DFC
:105A3000F092A80D440F551F661F771F4093950DD8
:105A40005093960D6093970D7093980D440C551CD0
:105A5000661C771C4092990D50929A0D60929B0D96
:105A600070929C0D000F111F221F331F00939D0D7C
:105A700010939E0D20939F0D3093A00D41A152A134
:105A800063A174A1440F551F661F771F4093A10D9A
:105A90005093A20D6093A30D7093A40D880F991FCE
:105AA000AA1FBB1F8093910D9093920DA093930D0D
:105AB000B093940D1092CB0D1092CC0D1092CD0D91
:105AC0001092CE0D82A593A5A4A5B5A58093C30D74
:105AD0009093C40DA093C50DB093C60D86A597A550
